:4000000000800020110000004D0700004D07000080B500AF024A034B1B68136000F0CAFBBC760040FA46004010B5054C237833B9044B13B10448AFF300800123237010BDAA
:400040005081FF1F0000000080430000084B10B51BB108490848AFF300800848036803B910BD074B002BFBD0BDE81040184700BF000000005481FF1F80430000C880FF1F6C
:400080000000000080B500AF104B1B68104A82FB03125211DB17D01A0C4B1B680C4A82FB03125111DA178A1A642101FB02F29A1A134602460749084803F03EFD064801F0C3
:4000C000A5FB01F0B1FC00BF80BD00BF8881FF1F1F85EB51884300008C81FF1F80B582B000AF0023FB7100F001FE01F0ABF801F077F801F02FFB01F0E1FB2B4801F046FCF4
:4001000062B6012001F0BCF800F008FE002000F015FE00F039FE03461AB2244B1A80002001F0AEF800F0FAFD002000F007FE00F02BFE03461AB21E4B1A801D4BB3F900206B
:400140001A4BB3F900301946104600F0C7FB0346184600F0F9FB03461A46164B1B681344144A1360FB79002B0AD0124B1B681A46104B1B681B0AD31A1A460E4B1A6005E0D6
:400180000C4B1B681B021A460A4B1A600123FB71084B1B68084A1360074B1B681B0A1A46054B1A60ADE700BF850000008481FF1F9C81FF1F6C81FF1F8881FF1F80B582B0FB
:4001C00000AF786039603A680021786803F0ABFC00BF0837BD4680BD80B584B000AFF860B9607A607A68B968F86803F091FC00BF1037BD4680BD00BF80B483B000AF0346BA
:40020000FB71FEE780B487B000AF7860396000233B6100237B6127E07B699B007A6813441B68BB60BB68FB73BB6823F0FF03BB6014E03B695B003A6813441B781A46BB68E1
:40024000134419463B695B003A6813445B780B703B6901333B61FB7B013BFB73FB7B002BE7D17B6901337B617B69162BD4D900BF1C37BD4680BC704780B582B000AF424B24
:4002800000221A80414B50221A70414B67221A80404B18221A70404B41F2BF221A803F4B18221A7004223E493E48FFF795FF3E4B06221A703D4B3E4A1278D2B21A703D4B4D
:4002C00052221A703C4B4FF4E2621A803B4B41F251221A800023FB7019237B6013E0FB785B00DAB2364B1B78DBB203F00103DBB21343DBB203F00303FB70782001F0A0FB10
:400300007B68013B7B607B68002B02D0FB78032BE5D17B68002B02D10320FFF76DFF294B4FF480721A80274B07221A70264B00221A70264B48221A70224B00221A70244BB4
:4003400000221A70234B02221A70234B04221A70224A224B1B78DBB243F00703DBB213701F4A1F4B1B78DBB243F00103DBB213701C4A1C4B1B78DBB263F07F03DBB2137045
:4003800000BF0837BD4680BD80400040824000408440004086400040884000408A400040940200480041004000430040A14600400F010049004200402242004020420040B7
:4003C0002542004004400040064000400840004009400040014000400B400040A2430040A1430040A043004080B483B000AF134B1B78FB71124AFB7903F00703DBB2137073
:40040000104AFB791B09DBB213700F4B42F210021A800E4B80221A700D4B24221A700D4B40F209121A800C4B01221A700B4B44221A7000BF0C37BD4680BC7047CF01004939
:400440006E5800406F5800402C5100403C510040205A0040465B00405B5B00407658004080B483B000AF0346FB71FB79012B0ED8FB79094A52F82330FA79074951F8222043
:400480001178FA790548825C0A43D2B21A7000BF0C37BD4680BC704798430000A043000080B483B000AF0346FB71FB79012B10D8FB790A4A52F82330FA79084951F82220FD
:4004C0001178FA790648825CD243D2B20A40D2B21A7000BF0C37BD4680BC704798430000A043000080B483B000AF0346FB71FB79012B24D8FA79FB791344FB71FB79124A4C
:4005000052F82330FA79104951F822201178FA790E48825C0A43D2B21A70FB790133FB71FB79094A52F82330FA79074951F822201178FA790548825C0A43D2B21A7000BF35
:400540000C37BD4680BC7047A4430000B443000080B483B000AF0346FB71FB79012B28D8FA79FB791344FB71FB79144A52F82330FA79124951F822201178FA791048825C55
:40058000D243D2B20A40D2B21A70FB790133FB71FB790A4A52F82330FA79084951F822201178FA790648825CD243D2B20A40D2B21A7000BF0C37BD4680BC7047A44300008A
:4005C000B443000080B586B000AF72B64C4B61221A70FFF751FE4A4BC1221A70494A494B1B78DBB243F00403DBB213700023FB7513E0FA7D13465B0013445B00424A134400
:400600003B613B691A683B699B889BB219461046FFF7D4FDFB7D0133FB75FB7D072BE8D90023FB751CE0FA7D13469B0013445B00364A1344FB60FB681B68BB60FB685B68DC
:400640007B60FB681A7A5B7A1B0213437B807B881A467968B868FFF7BFFDFB7D0133FB75FB7D002BDFD02A494FF09040FFF7CAFD284B0A221A70284A274B1B78DBB243F042
:400680000203DBB21370254A244B1B78DBB243F00203DBB21370224A214B1B78DBB243F04003DBB213701F4A1E4B1B78DBB243F01003DBB213700A221B491C48FFF78CFDA6
:4006C00008221B491B48FFF787FD08221A491B48FFF782FD1A4A1A4B1B78DBB243F00803DBB21370174B01221A70FFF77DFE0E220B491548FFF770FD00BF1837BD4680BDE1
:4007000000480040E8460040B8430000E84300005C000048835800400350014013500140A0430040C243004078020048C051004084020048125100408C0200482251004031
:400740002243004004000840B043004080B500AF03F0B2F903461B680C2B00D1FEE7FEE780B584B000AF7860104B1A687B6813441A460F4BD31AB3F5007F09DC0B4B1B68A2
:40078000FB600A4B1A687B681344084A136007E003F092F902460C2313604FF0FF33FB60FB6818461037BD4680BD00BFCC80FF1FB081FF1F80B586B000AF224B7B61224B5D
:4007C0003B61204B7B6135E03B691B68FB603B695B68BB603B699B683B6000237B600CE0FB681A68BB681A60BB680433BB60FB680433FB607B6804337B607A683B689A428F
:40080000EED13B69DB683B6000237B6008E0BB6800221A60BB680433BB607B6804337B607A683B689A42F2D13B6910333B617B69013B7B617B69002BC6D103F043F9FFF7FA
:400840004DFCFEE7010000006C44000080B582B000AF184B184A1A60184A184B1B6843F40073136000237B600FE07B68032B04D8134A7B6852F8233000E0124B12497A68AE
:4008800041F822307B6801337B607B682F2BECD90E4B1B78DAB20E4B1A700E4B0A4A1A60FFF790FE0C4B00221A6000BF0837BD4680BD00BF0CED00E00004FA0514ED00E006
:4008C000000000004D0700000080FF1FBC760040C480FF1F08ED00E0C080FF1F80B485B000AF03460A46FB801346BB80B7F9043042F2EE5202FB03F3BB60B7F90630002BC8
:400900000CDAFB885B429BB2FB81FB895B089BB2FB81FB895B429BB2FB8103E0FB885B089BB2FB81B7F90E30BA681344BB60B7F90630BA6892FBF3F3BB60BB6818461437D8
:40094000BD4680BC704700BFB0B586B000AF7860786802F015FD03460C461846214601F07FF803460C461846214603F02FF803467B61786902F026FD33A3D3E9002302F0B8
:4009800075FD03460C461846214631A3D3E9002302F0BAFB03460C4625461C46786902F011FD4FF00002304B01F0DAF82AA3D3E9002302F05BFD02460B462046294602F0ED
:4009C000A3FB03460C461846214602F0FFFF03463B61386902F0F6FC03460C461A4623464FF00000214902F06BFE03460C46184621461BA3D3E9002302F084FB03460C462E
:400A0000184621464FF00002194B02F02FFD03460C46184621464FF00002164B02F074FB03460C461846214602F0D0FF0346184603F01CF80346FB81B7F90E30184618379C
:400A4000BD46B0BDAFF300804E5710B78596253FA986037D37583E3F9C84CE17A422A03E6666666666127140000008400000F03F000059400000E03F80B582B002AF324B10
:400A800001221A70314B00221A70102000F0E8FC102000F0CBFD07211D2000F037FE2C4B04221A702B4B00221A702B4B00221A702A4A2A4B1B78DBB243F01803DBB2137019
:400AC000274B00221A70274B00221A70264B00221A70264B0A221A70254B00221A70254B00221A70244B5B221A70244B5E221A70234B00221A70234B14221A700123009350
:400B000010234FF4004249F2DA01042000F040FA1D4A0D4B1B78DBB2013B1C499B000B449B7813701A4A084B1B78DBB2013B174931F823301380044B1B78DBB2184600F05A
:400B400077F900BFBD4680BDD080FF1F7081FF1F96580040975800409E580040075B004093580040885B0040895B0040805800408158004083580040885800408958004055
:400B80008D580040014E00400E4E00407481FF1F0C4E004080B582B000AF00F059FF0346FB71444B1B78BB71434A434B1B78DBB243F00103DBB213703F4A3F4B1B78DBB222
:400BC00043F01003DBB213703C4A3C4B1B78DBB243F00103DBB21370384A384B1B78DBB243F01003DBB21370354A354B1B78DBB243F00203DBB21370324A324B1B78DBB230
:400C000043F00203DBB213702F4A2F4B1B78DBB243F00303DBB21370032000F03BFD284A274B1B78DBB223F00203DBB21370254A244B1B78DBB223F00203DBB21370234A06
:400C4000224B1B78DBB243F00603DBB21370204B7A221A701F4A1F4B1B78DBB243F00103DBB213701C4A1C4B1B78DBB243F00103DBB21370194A194B1B78DBB243F001037E
:400C8000DBB21370164A164B1B78DBB243F00103DBB21370134B4FF000521A60124B4FF000521A60FB79184600F0D6FE00BF0837BD4680BDD080FF1FAA430040BA4300407F
:400CC000F8460040F9460040915800407758004082580040A1430040B1430040A2430040B243004080E200E000E100E080B500AF084B1B78002B09D1074B1B78DBB2002B84
:400D000001D1FFF7B9FE034B01221A70FFF742FF00BF80BD7281FF1F7381FF1F80B400AF054A054B1B78DBB243F00103DBB2137000BFBD4680BC7047004E004080B485B04E
:400D400000AF0346FB710D4B1B78DBB2002B03D00B4B1B78FB7305E00A4B1B78DBB203F00103FB73FB7B012B02D0FB79002BEAD0FB7B18461437BD4680BC70477181FF1F91
:400D80007081FF1F014E004080B483B000AF224B1B78DBB203F00303FB70FB78012B0BD81E4B1B889BB27B607B681B041C4A128892B213437B6020E0FB78022B12D1174B7C
:400DC0001B889BB27B607B681B04154A1278D2B213437B60134B1B78DBB21B027A6813437B600AE00E4B1B889BB27B600B4B1B889BB21B047A6813437B600B4B1B78DBB2DE
:400E0000002B02D0094B00221A707B6818460C37BD4680BC704700BF144E0040124E0040104E0040114E00407181FF1F7081FF1F80B582B000AF0346FB71374B00221A70E5
:400E4000FB79012B63D1354B30221A70344B04221A70344B07221A70334B00221A70334B00221A70324B3F221A70324B00221A70314B00221A70314B00221A70304B01220E
:400E80001A70304B50221A702F4B27221A702F4B2C221A702E4B00221A702E4B55221A702D4B5A221A702D4B05221A702C4B02221A702C4B12221A702B4B28221A702B4B32
:400EC000EB221A70442000F01BF9294B58221A70284B00221A70284B01221A70274B01221A70274B00221A70264B0A221A70264B4FF4FA421A600121032000F0F3F901212B
:400F0000102000F0D5FA21491D2000F0D7FB00BF0837BD4680BD00BF7181FF1F004E0040024E0040034E0040044E0040054E0040064E0040084E0040094E00400A4E00401F
:400F4000144E0040845800408558004086580040875800408A5800408B5800408C5800408E5800408F580040905800409158004094580040955800409A5800409B58004094
:400F80009C5800409D580040A081FF1F7D11000090B587B000AF0446084611461A462346FB710346BB800B467B801346BB7197F82830002B00F08B8097F82830012B00F245
:400FC0008680FB79013B092B4AD801A252F823F0F90F00006110000061100000F90F00006110000061100000131000002D1000006110000047100000BB790F2B04D9374B1C
:401000001B78DBB2FB752EE0354B1B78DBB2FB7529E0BB790F2B04D9324B1B78DBB2FB7521E0314B1B78DBB2FB751CE0BB790F2B04D92E4B1B78DBB2FB7514E02C4B1B7846
:40104000DBB2FB750FE0BB790F2B04D9294B1B78DBB2FB7507E0284B1B78DBB2FB7502E00023FB7500BFBA8897F917305B0113443B617B883A6902FB03F3FB60FB68DB0B72
:40108000BB82BB790D2B12D8BA8ABB79C3F10E0342FA03F3BB8297F82830013BBA790132D1B2164A9B0013440A469A7007E097F82830013B114A9B0013440F229A7097F818
:4010C0002830013B0D49BA8A21F8232002E0002000F0D4FA00BF1C37BD4690BD180100491C010049190100491D0100491A0100491E0100491B0100491F0100497481FF1F05
:4011000080B584B000AF0346FB7100F0A1FC0346FB73174A164B1B78DBB243F00303DBB21370144A134B1B78DBB243F00303DBB21370114AFB791370032000F0ABFA0C4AEE
:401140000B4B1B78DBB223F00303DBB21370094A084B1B78DBB223F00303DBB21370FB7B184600F079FC00BF1037BD4680BD00BFF8460040F94600409258004080B400AF99
:4011800000BFBD4680BC704780B500AF032000F039F800BF80BD00BF80B400AF0D4A0D4B1B78DBB243F06003DBB213700A4A0A4B1B78DBB243F00803DBB21370074A074B85
:4011C0001B78DBB243F00803DBB2137000BFBD4680BC704777580040A4430040B443004080B500AF064B1B78002B04D1044B01221A70FFF7C9FFFFF7CFFF00BF80BD00BF5E
:401200007881FF1F80B483B000AF0346FB710C4A0B4B1B78DBB223F00303DBB213700849074B1B78DAB2FB7903F00303DBB21343DBB20B7000BF0C37BD4680BC704700BF06
:401240005E58004080B582B000AF0023FB710AE0FB791846FFF724F9FB791846FFF778F9FB790133FB71FB79012BF1D9034BFF221A7000BF0837BD4680BD00BFD180FF1FE8
:4012800080B582B000AF0346FB710C4B1B78FF2B04D00A4B1B78184600F012F8FB791846FFF7DEF8FB791846FFF71CF9034AFB79137000BF0837BD4680BD00BFD180FF1F10
:4012C00080B582B000AF0346FB71FB791846FFF7E7F8FB791846FFF73BF900BF0837BD4680BD00BF80B584B000AF03460A46FB8013467B7100F0CEF80346FB7300F0A4F819
:401300000346BB81FA88BB899A4200F08880464B1B78DBB203F00103FB72FB7B002B20D1BB89002B02D0FB88002B1AD1BB89002B0BD13E4AFB8813803D4A3D4B1B78DBB2F5
:4013400023F04003DBB2137069E0394A384B1B78DBB243F04003DBB21370344AFB8813805DE0FB7A002B33D0324B00221A70324B01221A70314B00221A70314A304B1B789A
:40138000DBB203F07F03DBB21370294B1B78DBB203F00803002B02D0FB88002B18D1294ABB891380234B07221A7000BF214B1B78DBB203F00103002BF8D11B4A1A4B1B78F7
:4013C000DBB223F00103DBB213701A4B00221A70154B1B78DBB203F00103002B13D0194AFB881380134A7B79002B01D0032300E00123137000BF0F4B1B78DBB203F0010300
:40140000002BF8D10BE0094AFB8813800649064B1B78DAB2FB7A1343DBB20B70FFE700BF1037BD4680BD00BFA243004080400040824000400140004010400040144000401B
:40144000084000400240004080B400AF034B1B889BB21846BD4680BC704700BF8040004080B483B000AF0346FB710949084B1B78DBB25AB297F9073023F007035BB213434B
:401480005BB2DBB20B7000BF0C37BD4680BC70478240004080B400AF044B1B78DBB203F00703DBB21846BD4680BC70478240004080B584B000AF03460A46FB8013467B717A
:4014C00000F0CEF80346FB7300F0A4F80346BB81FA88BB899A4200F08880464B1B78DBB203F00103FB72FB7B002B20D1BB89002B02D0FB88002B1AD1BB89002B0BD13E4A80
:40150000FB8813803D4A3D4B1B78DBB223F04003DBB2137069E0394A384B1B78DBB243F04003DBB21370344AFB8813805DE0FB7A002B33D0324B00221A70324B01221A7044
:40154000314B00221A70314A304B1B78DBB203F07F03DBB21370294B1B78DBB203F00803002B02D0FB88002B18D1294ABB891380234B07221A7000BF214B1B78DBB203F0D9
:401580000103002BF8D11B4A1A4B1B78DBB223F00103DBB213701A4B00221A70154B1B78DBB203F00103002B13D0194AFB881380134A7B79002B01D0032300E00123137019
:4015C00000BF0F4B1B78DBB203F00103002BF8D10BE0094AFB8813800649064B1B78DAB2FB7A1343DBB20B70FFE700BF1037BD4680BD00BFA14300400041004002410040CE
:40160000014000401440004010400040084000400240004080B400AF034B1B889BB21846BD4680BC704700BF0041004080B483B000AF0346FB710949084B1B78DBB25AB2AA
:4016400097F9073023F007035BB213435BB2DBB20B7000BF0C37BD4680BC70470241004080B400AF044B1B78DBB203F00703DBB21846BD4680BC70470241004080B483B079
:4016800000AF0346FB7101BE00BF0C37BD4680BC704700BF80B582B000AF0346FB80FB88054A127802FB03F3184600F0C9F900BF0837BD4680BD00BFDC80FF1F80B584B037
:4016C00000AF03463960FB710F4B1B68FB60FB791F2B02D90020FFF7D1FFFB7903F01F0310339B00FA6813441B68BB60FB7903F01F0310339B00FA6813443A681A60BB6819
:4017000018461037BD4680BD08ED00E080B582B000AF03460A46FB711346BB71BB79072B02D90020FFF7AAFFFB791F2B02D90020FFF7A4FFFB7903F01F0303F1604303F5E5
:401740006443BA795201D2B21A7000BF0837BD4680BD00BF80B500AF064B1B78002B04D100F00AF8034B01221A7000F01BF800BF80BD00BF7981FF1F80B400AF064B06224A
:401780001A70064B47221A70054B01221A7000BFBD4680BC704700BF2B6500403B6500408A65004080B582B000AF00F051F90346FB71084A074B1B78DBB243F01003DBB26F
:4017C0001370FB79184600F047F900BF0837BD4680BD00BF9A65004080B483B000AF0346FB7100BF074B1B78DBB203F00403002BF8D1054AFB79137000BF0C37BD4680BCB7
:40180000704700BF6A6500404A65004080B584B000AF78600023FB810C4B1B78002B10D009E0FB897A6813441B781846FFF7D4FFFB890133FB81FB897A6813441B78002BA1
:40184000EFD100BF1037BD4680BD00BF7981FF1F80B582B000AF40F6C31000F05DF840F6C31000F075F800F0F3F80346FB710A4A094B1B78DBB243F01003DBB21370FB799F
:40188000184600F0E9F800F073F8012000F028F800BF0837BD4680BD9B64004080B400AF054A054B1B78DBB263F07F03DBB2137000BFBD4680BC70477A64004080B500AFB2
:4018C000064B1B78002B04D1FFF7C2FF034B01221A70FFF7E3FF00BF80BD00BF7B81FF1F80B483B000AF0346FB71044AFB79137000BF0C37BD4680BC704700BF8B640040AF
:4019000080B400AF034B1B78DBB21846BD4680BC704700BF6B64004080B483B000AF0346FB80044AFB88138000BF0C37BD4680BC704700BF5468004080B400AF034B1B886F
:401940009BB21846BD4680BC704700BF9468004080B483B000AF0346FB80044AFB88138000BF0C37BD4680BC704700BF1468004080B500AF01E0FFF7DFFFFFF7C1FF034682
:4019800003F00803002BF6D100BF80BD80B582B000AF786000F03CF8786800F009F8072000F018F800F028F800BF0837BD4680BD80B485B000AF7860054B1B68FB60FB6862
:4019C00040337A681A6000BF1437BD4680BC704708ED00E080B483B000AF0346FB71054AFB795B01DBB2137000BF0C37BD4680BC704700BF00E400E080B400AF034B01227A
:401A00001A6000BFBD4680BC704700BF00E100E080B400AF034B01221A6000BFBD4680BC704700BF80E100E080B400AF034B01221A6000BFBD4680BC704700BF80E200E0F0
:401A40000230800803D000BF01380046FCD17047EFF3108072B6704780F31088704700BF2DE9F0418AB004460D4600F011FA374B064693F900800F46B8F1FF3F0DD02246D1
:401A80002B462046294601F08BFF30B9002200232046294601F07AFF20B1304639460AB0BDE8F0812A4B0890CDE90245CDE904450193B8F1000F19D1264F4FF06046204663
:401AC000294600220023CDE9066701F037FF002834D002230093684601F0FEF9A8B1089BC3B9DDE906010AB0BDE8F0811A4F00262046294600220023CDE9066701F01EFF7F
:401B000068B1022398450093E5D101F0D5FF22230360E4E701F0D0FF089B0360E1E70123B8F1020F00930BD101F0C6FF212303600A4801F0D3F9CDE90601D0E70123009397
:401B4000684601F0C9F90028F2D1EDE7E480FF1FF4430000FFFFEFC70000F0FFF84300002DE9F04F8DB006460F4614461D4600F083FBDFF81093CDE9000199F90080B8F164
:401B8000FF3F46D022462B462046294601F008FF834600283DD132463B463046394601F0FFFE8246002874D1304639460022002301F0C4FE002833D00022002320462946E9
:401BC00001F0BCFE8346B8B1A94A012300200021CDF828A0CDE90467CDE90645CDE9080103920293B8F1000F6CD0A24B0022104619460DB0BDE8F08F2046294601F066F95A
:401C000038B1002200232046294601F0A1FE00286AD1DDE90023104619460DB0BDE8F08FDDE9000101F052F9804600287DD0DDE900014FF0000A4FF0000B52465B4601F06D
:401C40007DFE0028E5D03046394601F03FF90028DFD02046294601F039F90028D9D099F90030834804210022022BCDE90467CDE90645CDE908AB039002910A9204D002A882
:401C800001F02AF9002847D101F016FF2223036042E0002200232046294601F04FFE0028B7D0744B724800220121B8F1020FCDF828B0CDE90467CDE90645CDE9082303904F
:401CC0000291A8D002A801F007F900287ED00A9B43B301F0F1FEDDE908230A990160104619460DB0BDE8F08F614999F900300122CDF828B0CDE90467CDE90645039102924C
:401D0000002B68D05C490020022BCDE9080166D101F0D2FE212303600A9B1BB101F0CCFE0A9B0360DDE9082375E73046394601F0CDF800283FF47BAF2046294601F0C6F8BB
:401D400000283FF474AFDDE900231046194601F027FE00286FD1464B99F90080039303230A90CDE90467CDE906450293B8F1000F3BD1DFF814B14FF0604A00220023304615
:401D80003946CDE908AB01F0E3FD00283FF477AF00223A4B2046294601F068FB04460D4601F0A2F802460B462046294601F0C6FD00283DD1324B4FF06042CDE9082399F9C8
:401DC0000080B8F1020F7FF45AAF5DE701F074FE212303607BE700230024CDE9083402A801F07AF8002897D192E7DFF8A0B04FF0000A0022002330463946CDE908AB01F02A
:401E0000A7FD0028DDD000221C4B2046294601F02DFB04460D4601F067F802460B462046294601F08BFD18B9134B0022CDE9082399F90080C5E70E4A99F900900123CDF88B
:401E40002880CDE90467CDE9064503920293B9F1000FC0D0002200231046194601F030FCB9F1020FCDE908013FF452AFB7E700BFFC4300000000F03F0000F0FF0000E03F87
:401E8000FFFFEFC7E480FF1FFFFFEF470000F07F2DE9F04FB1F5801F85B006460F460B465ADA024621F00044224300F0F7800029C0F279810022D64B01F0D8FA0B460F466A
:401EC000D44906468B426FF0350249DCC3F3130505F5152404F6647404F4801E8EF07F5181F440111B15A3F2FF3341EA05079C1830460022C84B394604EB1E5401F002F91B
:401F0000AB1CC3F31303022B82468B464FF000022FDC002301F012FD002800F0C880002C00F04A81204601F03BFAA5A3D3E9002306460F4601F09AFAA3A3D3E9002304464A
:401F40000D463046394601F091FA02460B462046294601F0D9F809E0AE4900228B42B5DD32463B463046394601F0CEF805B0BDE8F08F4FF0804301F0C7F802460B465046AD
:401F8000594601F09DFB064620460F4601F008FA3246CDE900013B4630463946CDE9026701F064FA02460B468046894601F05EFA87A3D3E9002306460F4601F057FA86A360
:401FC000D3E9002301F0A0F832463B4601F04EFA83A3D3E9002301F097F832463B4601F045FA81A3D3E9002301F08EF842464B4601F03CFA7EA3D3E90023804689463046D4
:40200000394601F033FA7CA3D3E9002301F07CF832463B4601F02AFA79A3D3E9002301F073F832463B4601F021FA0B4602464946404601F069F8A5F5C223C5F5D725A3F26C
:402040007A4351351D43002D8046894656DD0022724B5046594601F009FA52465B4601F005FA06460F46002C68D132463B464046494601F049F8DDE9022301F0F7F902463D
:402080000B463046394601F03DF802460B465046594601F037F805B0BDE8F08F0022002300205F4901F00CFB05B0BDE8F08F56A3D3E900235046594601F0D8F902460B46A7
:4020C0000020564901F01EF8524606460F465B465046594601F0CAF902460B463046394601F0C4F906460F46002C40F09B8002460B465046594601F005F837E7002C00F00D
:40210000A5802FA3D3E90023DDE9000101F0AEF942464B4604460D465046594600F0F2FFDDE9022301F0A2F927A3D3E9002306460F46DDE9000101F099F921E020A3D3E913
:402140000023DDE9000101F091F932463B4604460D464046494600F0D7FFDDE9022301F085F919A3D3E9002380468946DDE9000101F07CF902460B464046494600F0C4FF71
:4021800002460B463046394600F0BCFF52465B4600F0B8FF02460B462046294600F0B2FF05B0BDE8F08F02460B4600F0ABFF0022002301F085FAD9E600200021D6E600BFBB
:4021C0000000E0FE422EE63F763C7935EF39EA3D44523EDF12F1C23FDE03CB966446C73F599322942449D23F935555555555E53F9FC678D0099AC33FAF788E1DC571CC3F2F
:4022000004FA97999999D93F555555555555D53F00005043FFFFEF7F0000F03F0000E03F000050C3204601F0BBF80FA3D3E900238046894601F01AF90DA3D3E900230446A7
:402240000D464046494601F011F999E702460B465046594600F056FFDDE9022301F006F913E700BFAFF300800000E0FE422EE63F763C7935EF39EA3D2DE9F04F23F00048E0
:4022800058EA020993B03CD0714C21F00046A64283460D460CDD06F1404606F5801656EA0B0038D183466B49584613B0BDE8F08F9A4696462BD0A045EDDC654CA04578D0DA
:4022C000002D0F468146CDE9002376DB0024BEF1000F27D15E4B984500F08B805D4B984552D0BAF1804F00F0C9835B4B9A4519D1002D17DB4846394613B0BDE8F04F00F081
:402300001DBDCB465846534913B0BDE8F08F0028C1D1B045D1DD514813B0BDE8F04F00F0DDBD00244846394600F0CCFDBBF1000F1CD0ED0F013D54EA050370D0484B9845A9
:4023400040F3948003F10473984540F30D84454B9E4270DDBAF1000F70DD3BA3D3E900231046194601F082F883469DE726B1394B25F040429A42DCD1BAF1000FC0F2B783FB
:40238000002D08DB83468FE7BAF1000FC0F25E84CB46394688E706F1404606F5801656EA040300F08384012CECD101F1004183467AE7BEF1000F83D06DE72B4B98452CDC2E
:4023C000A3F15473984581DD4FEA2853A3F2FF33142B40F35384C3F134032EFA03F202FA03F39E457FF472AF02F00102C2F102046DE706F1404303F5801353EA0B0300F0D0
:402400003A83184B9E4240F36783BAF1000F15DBDDE900349B46214646E7022457E74A4648463B46394600F06DFE02460B4601F047F9834638E7BAF1000F8EDB4FF0000B6A
:40244000594631E7AFF300809C7500883CE4377E0000F07F0000F03F0000E03FF84300000000E041FFFFEF3FFFFF3F43B6F5801F4FF0000205DAD04B00F0F8FF0E466FF031
:402480003402DFF844E33315C6F31306A3F2FF3346F07F57764503EB020A47F4401740F3C983C64B00229E4240F304840023CDE90823CDE90C23C24B0022CDE906230AF175
:4024C000010AA7F5801700263946DDE90623CDE90A0100F017FEDDE9062380468946DDE90A0100F011FE02460B460020B44901F0E7F80A4601461346CDE90E1202464946CD
:40250000404600F0B3FF8C4683467B1043F0005303F5002399190020CDE904BC06460F464FF0000B6146584632463B46CDE910BCCDE9020100F09AFF02460B4640464946C9
:4025400000F0E0FDDDE90623804689463046394600F0D8FD02460B46DDE90A0100F0D2FDDDE9022300F082FF02460B464046494600F0C8FDDDE90E2300F078FFDDE90478C8
:40258000CDE906013A4643463846414600F06EFF77A3D3E9002306460F4600F067FF76A3D3E9002300F0B0FD32463B4600F05EFF73A3D3E9002300F0A7FD32463B4600F0B6
:4025C00055FF71A3D3E9002300F09EFD32463B4600F04CFF6EA3D3E9002300F095FD32463B4600F043FF6CA3D3E9002300F08CFD3246804689463B463046394600F036FF29
:4026000002460B464046494600F030FFDDE9022306460F46DDE9040100F076FDDDE9062300F024FF32463B4600F06EFDDDE902678046894632463B463046394600F016FF06
:402640000022604BCDE90A0100F05EFD42464B4600F05AFDDDE910BC0F46DDE902015A463B46CDE90EBC5E4600F000FF0022CDE90201544B3046394600F044FDDDE90A23AA
:4026800000F040FD02460B464046494600F03AFDDDE9042300F0EAFE324680468946DDE906013B4600F0E2FE02460B464046494600F02AFD8046894602460B46DDE902016C
:4026C00000F022FDDDE90EBC35A3D3E900235846CDE906BC5E460F4600F0C8FEDDE90223CDE904013046394600F00CFD02460B464046494600F006FD2BA3D3E9002300F0ED
:40270000B5FE2BA3D3E90023804689463046394600F0ACFE02460B464046494600F0F4FCDDE90C2300F0F0FC80465046894600F037FE06460F46DDE9040142464B4600F0F1
:40274000E3FCDDE9082300F0DFFC32463B4600F0DBFCDDE906BC324658463B46DA468B4600F0D0FCDDE9082330E000BFAFF30080EF4E454A287ECA3F65DBC9934A86CD3F5D
:4027800001411DA96074D13F4D268F515555D53FFFAB6FDBB66DDB3F033333333333E33F000000E009C7EE3FFD033ADC09C7EE3FF5015B14E02F3EBE0000404379B60B00AA
:4027C0000000F03F000008408E98030000F09AFCDDE9042300F096FC02460B464046494600F090FC80468946DDE90012013C54EA050314BFD64CD74C0023CDE904340B46B0
:402800001446CDE9023400230293DDE9024508462B461146224600F075FC52465B4600F025FEDDE9002306460F464046494600F01DFE02460B463046394600F065FC06468D
:402840000F4622462B4650465946CDE9006700F00DFE0B460246804689463046394600F053FCBD4B064699420D460C4640F30E8101F13F4303F5E003034340F0F081A0A36C
:40288000D3E90023DDE9000100F03EFC424682468B464B463046294600F034FC02460B465046594601F072F8002840F0D8812F463B154FF48012A3F2FE3342FA03F32344BE
:4028C000C3F30A52A54EA2F2FF321641C3F3130B0020C2F1140523EA06014BF4801B02460B46002C4BFA05FB40464946B8BFCBF1000B00F007FC02460B4680468946DDE9C5
:40290000000100F001FC4FEA0B5A00247EA3D3E9002320460D4600F0A9FD424606460F464B462046294600F0EDFB02460B46DDE9000100F0E7FB76A3D3E9002300F096FD84
:4029400075A3D3E90023804689462046294600F08DFD02460B464046494600F0D5FB8046894602460B463046394600F0CDFB32463B4604460D4600F0C5FB02460B464046CE
:40298000494600F0BFFB2246804689462B462046294600F06BFD62A3D3E9002306460F4600F064FD60A3D3E9002300F0ABFB32463B4600F05BFD5EA3D3E9002300F0A4FB45
:4029C00032463B4600F052FD5BA3D3E9002300F099FB32463B4600F049FD59A3D3E9002300F092FB32463B4600F040FD02460B462046294600F086FB06460F4602460B4678
:402A00002046294600F032FD0022CDE900014FF080433046394600F075FB02460B46DDE9000100F04DFE424606460F464B462046294600F01BFD42464B4600F065FB02468F
:402A40000B463046394600F05DFB22462B4600F059FB02460B4600203D4900F053FB8A44BAF5801FC0F237815146DDE9042300F0FDFC834618E4F346354915E44A464846A8
:402A80003B46394600F0F2FC83460DE4344B21F000479F4240F30181324B0B4403430CD142464B4600F02EFB02460B46DDE9000100F058FF00283FF4FBAE23A3D3E90023A0
:402AC000DDE9040100F0D2FC1FA3D3E9002300F0CDFC8346FFF7E8BBBAF1000FBFF6AEACDDE900349B4604F10041FFF7DDBB02460B460020164900F0E3FD41E4AFF30080FA
:402B0000FE822B654715973C00000000432EE63FEF39FAFE422EE63F396CA80C615C20BED0A4BE726937663EF16BD2C541BDBB3E2CDE25AF6A56113F93BDBE166CC1663F61
:402B40003E5555555555C53F59F3F8C21F6EA5010000F03F0000F0BFFFFF8F40FFFF0F00FFCB904000346F3F6F4B9E427FF763AC6E4B9E423FF7EEAB00226C4B00F0C2FAF1
:402B80005BA3D3E9002306460F4600F06FFC5AA3D3E90023804689463046394600F066FC002282468B46624B3046394600F05EFC02460B4652A1D1E9000100F0A3FA324691
:402BC0003B4600F053FC02460B460020594900F099FA3246CDE902013B463046394600F045FC02460B46DDE9020100F03FFC46A3D3E9002300F03AFC02460B465046594616
:402C000000F080FA02460B4606460F464046494600F07AFA42464B46002082468B4600F071FA02460B463046394600F06BFA80468946D9E500220023CDE90823CDE90C2309
:402C40003A4B00220026CDE906233DE44A463B460020364900F034FD8346FFF725BB2CA3D3E90023DDE9040100F000FC28A3D3E9002300F0FBFB8346FFF716BBBEF1000FD4
:402C80007FF44FABC3F1140348FA03F202FA03F3984524D07446FFF721BB264B9F423FF707AEDDE902349A469B462EE602460B46FFF7B9BB204B4FF48026CDE9062316A359
:402CC000D3E90023CDE9082315A3D3E90023CDE90C23FFF7F9BB5A4600F096F9C5E602F00102C2F10204FFF7F9BA00BFAFF30080000000604715F73F44DF5DF80BAE543E37
:402D0000555555555555D53FFE822B654715F73F9C7500883CE4377E0000004003B8E23F06D0CF43EBFD4C3EFEFFEF3F0000F03F0000D03F0000E03F0000F83F2DE9F041F5
:402D40005F4E0C46B6460E407645054600F0988000290B46024674DD5FEA215E7FD0AEF2FF3EC3F313031EF0010F43F4801363D100273E4603EBD2710B444FEA6E0E5200DB
:402D800016204FF4001174189C424FEAD2754FEA420202DC1B1B66180F44013805EB43034FEA5101EFD1844620244FF0004109E020D003EBD275013C4FEA51012B444FEA77
:402DC000420220D09E4201EB0C05F1DA002D05EB010C09DBB0469542A3EB060300D9013B4646521B0844E4E7BCF1000FF2DB06F10108F0E7954217D8002D05EB010C49DBEC
:402E000098460023ECE7134310D140087B1003F17F5303F50013FA0703EB0E57394648BF40F00040BDE8F0813346C2E7411C35D000F001031844E8E75B0003EBD273520000
:402E400096E721F000460643ECD079BB8E46D30AAEF1150E5205002BF9D0DD0221D4002100E001465B00DC0201F10100F9D5C0F1200422FA04F42343C1EB0E0E82406EE743
:402E800002460B4600F0F2FA2A46234600F03CF9BDE8F081BCF1000FA9DAB1E701372046B4E720244FF0FF310020E2E702460B4600F028F902460B4600F002FCB2E700BF54
:402EC0000000F07F21F00041704700BF41F0004101F58010C00F70470020704700200149704700BF0000F87FF0B5C1F30A5EAEF2FF36132E83B002460B460C464FEAD1757B
:402F000007462EDC002E49DB3D49314103EA010010432BD049080B4053EA02070CD04FF48023132E24EA010143FA06F444EA01040CBF4FF000470027324B214603EBC50541
:402F4000D5E90045384622462B4600F0DDF8CDE90001DDE9000122462B4600F0D3F803B0F0BD332E06DDB6F5806F45D01046194603B0F0BDAEF2134E4FF0FF3121FA0EF12E
:402F80000842F3D049080842D6D04FF0804320EA010143FA0EFE4EEA0107CDE721F0004101431946E4D0C3F3130343EA000CCCF1000343EA0C0C134B640C4FEA1C3C0CF466
:402FC000002C03EBC5036404D3E900674CEA040132463B4600F098F8CDE90001DDE9000132463B4600F08EF8024621F0004141EAC57310461946BBE700F086F8B8E700BFA3
:40300000FFFF0F0000440000F8B5C1F30A5604460D460B46174606BB21F00043034325D000222F4B00F022FA2E4A044697420D460B462ADBC1F30A56363E40F2FE723E444B
:40304000964228DC002E12DD23F0FF4323F4E00343EA065520462946F8BD40F2FF729642EBD102460B4600F04FF8F8BDF8BD16F1350F1DDA4CF250339F420CDC14A1D1E94A
:40308000000122462B4600F031F811A3D3E9002300F0ECF9F8BD22460FA1D1E900012B4600F024F80CA3D3E9002300F0DFF9F8BD23F0FF4323F4E003363643EA06552046FC
:4030C00029460022084B00F0D1F9F8BDAFF3008059F3F8C21F6EA5019C7500883CE4377E00005043B03CFFFF0000903C03F0004321F0004242EA0301704700BF81F000418A
:4031000002E000BF83F0004330B54FEA41044FEA430594EA050F08BF90EA020F1FBF54EA000C55EA020C7FEA645C7FEA655C00F0E2804FEA5454D4EB5555B8BF6D420CDDFD
:403140002C4480EA020281EA030382EA000083EA010180EA020281EA0303362D88BF30BD11F0004F4FEA01314FF4801C4CEA113102D0404261EB410113F0004F4FEA0333FA
:403180004CEA133302D0524263EB430394EA050F00F0A780A4F10104D5F1200E0DDB02FA0EFC22FA05F2801841F1000103FA0EF2801843FA05F359410EE0A5F120050EF18A
:4031C000200E012A03FA0EFC28BF4CF0020C43FA05F3C01851EBE37101F0004507D54FF0000EDCF1000C7EEB00006EEB0101B1F5801F1BD3B1F5001F0CD349085FEA300004
:403200004FEA3C0C04F101044FEA445212F5800F80F09A80BCF1004F08BF5FEA500C50F1000041EB045141EA050130BD5FEA4C0C404141EB010111F4801FA4F10104E9D194
:4032400091F0000F04BF01460020B1FA81F308BF2033A3F10B03B3F120020CDA0C3208DD02F1140CC2F10C0201FA0CF021FA02F10CE002F11402D8BFC2F1200C01FA02F1B8
:4032800020FA0CFCDCBF41EA0C019040E41AA2BF01EB0451294330BD6FEA04041F3C1CDA0C340EDC04F11404C4F1200220FA04F001FA02F340EA030021FA04F345EA030120
:4032C00030BDC4F10C04C4F1200220FA02F001FA04F340EA0300294630BD21FA04F0294630BD94F0000F83F4801306BF81F480110134013D4EE77FEA645C18BF7FEA655C19
:4033000029D094EA050F08BF90EA020F05D054EA000C04BF1946104630BD91EA030F1EBF0021002030BD5FEA545C05D14000494128BF41F0004130BD14F580043CBF01F537
:40334000801130BD01F0004545F0FE4141F470014FF0000030BD7FEA645C1ABF194610467FEA655C1CBF0B46024650EA013406BF52EA033591EA030F41F4002130BD00BFC7
:4033800090F0000F04BF0021704730B54FF4806404F132044FF000054FF0000150E700BF90F0000F04BF0021704730B54FF4806404F1320410F0004548BF40424FF00001C3
:4033C0003EE700BF42004FEAE2014FEA31014FEA02701FBF12F07F4393F07F4F81F06051704792F0000F14BF93F07F4F704730B54FF4607401F0004521F0004120E700BFF3
:4034000050EA010208BF704730B54FF000050AE050EA010208BF704730B511F0004502D5404261EB41014FF4806404F132045FEA915C3FF4DCAE4FF003025FEADC0C18BF60
:4034400003325FEADC0C18BF033202EBDC02C2F1200300FA03FC20FA02F001FA03FE40EA0E0021FA02F11444C1E600BF70B54FF0FF0C4CF4E06C1CEA11541DBF1CEA135584
:4034800094EA0C0F95EA0C0F00F0DEF82C4481EA030621EA4C5123EA4C5350EA013518BF52EA033541F4801143F4801338D0A0FB02CE4FF00005E1FB02E506F00042E0FB03
:4034C00003E54FF00006E1FB03569CF0000F18BF4EF0010EA4F1FF04B6F5007F64F5407404D25FEA4E0E6D4146EB060642EAC62141EA55514FEAC52040EA5E504FEACE2E67
:40350000B4F1FD0C88BFBCF5E06F1ED8BEF1004F08BF5FEA500E50F1000041EB045170BD06F0004646EA010140EA020081EA0301B4EB5C04C2BFD4EB0C0541EA045170BD3F
:4035400041F480114FF0000E013C00F3AB8014F1360FDEBF002001F0004170BDC4F10004203C35DA0C341BDC04F11404C4F1200500FA05F320FA04F001FA05F240EA020017
:4035800001F0004221F0004110EBD37021FA04F642EB06015EEA430E08BF20EAD37070BDC4F10C04C4F1200500FA04F320FA05F001FA04F240EA020001F0004110EBD370F9
:4035C00041F100015EEA430E08BF20EAD37070BDC4F1200500FA05F24EEA020E20FA04F301FA05F243EA020321FA04F001F0004121FA04F220EA020000EBD3705EEA430E51
:4036000008BF20EAD37070BD94F0000F0FD101F00046400041EB010111F4801F08BF013CF7D041EA060195F0000F18BF704703F00046520043EB030313F4801F08BF013D04
:40364000F7D043EA0603704794EA0C0F0CEA135518BF95EA0C0F0CD050EA410618BF52EA4306D1D181EA030101F000414FF0000070BD50EA410606BF1046194652EA430646
:4036800019D094EA0C0F02D150EA013613D195EA0C0F05D152EA03361CBF104619460AD181EA030101F0004141F0FE4141F470014FF0000070BD41F0FE4141F4780170BDA2
:4036C00070B54FF0FF0C4CF4E06C1CEA11541DBF1CEA135594EA0C0F95EA0C0F00F0A7F8A4EB050481EA030E52EA03354FEA013100F088804FEA03334FF0805545EA131395
:4037000043EA12634FEA022245EA111545EA10654FEA00260EF000419D4208BF964244F1FD0404F5407402D25B084FEA3202B61A65EB03055B084FEA32024FF480104FF4E0
:40374000002CB6EB020E75EB030E22BFB61A754640EA0C005B084FEA3202B6EB020E75EB030E22BFB61A754640EA5C005B084FEA3202B6EB020E75EB030E22BFB61A754617
:4037800040EA9C005B084FEA3202B6EB020E75EB030E22BFB61A754640EADC0055EA060E18D04FEA051545EA16754FEA06164FEAC30343EA52734FEAC2025FEA1C1CC0D142
:4037C00011F4801F0BD141EA00014FF000004FF0004CB6E711F4801F04BF01430020B4F1FD0C88BFBCF5E06F3FF6AFAEB5EB030C04BFB6EB020C5FEA500C50F1000041EB31
:40380000045170BD0EF0004E4EEA113114EB5C04C2BFD4EB0C0541EA045170BD41F480114FF0000E013C90E645EA060E8DE60CEA135594EA0C0F08BF95EA0C0F3FF43BAFF2
:4038400094EA0C0F0AD150EA01347FF434AF95EA0C0F7FF425AF104619462CE795EA0C0F06D152EA03353FF4FDAE1046194622E750EA410618BF52EA43067FF4C5AE50EAE8
:4038800041047FF40DAF52EA43057FF4EBAE12E74FF0FF3C06E000BF4FF0010C02E000BF4FF0010C4DF804CD4FEA410C7FEA6C5C4FEA430C18BF7FEA6C5C1BD001B050EA80
:4038C000410C0CBF52EA430C91EA030F02BF90EA020F0020704710F1000F91EA030F58BF994208BF90422CBFD8176FEAE37040F0010070474FEA410C7FEA6C5C02D150EA1B
:40390000013C07D14FEA430C7FEA6C5CD6D152EA033CD3D05DF8040B704700BF8446104662468C461946634600E000BF01B5FFF7B7FF002848BF10F1000F01BD4DF808ED40
:40394000FFF7F4FF0CBF012000205DF808FB00BF4DF808EDFFF7EAFF34BF012000205DF808FB00BF4DF808EDFFF7E0FF94BF012000205DF808FB00BF4DF808EDFFF7CEFF20
:4039800094BF012000205DF808FB00BF4DF808EDFFF7C4FF34BF012000205DF808FB00BF4FEA410C7FEA6C5C02D150EA013C0AD14FEA430C7FEA6C5C02D152EA033C02D168
:4039C0004FF0000070474FF0010070474FEA4102B2F1E04324BFB3F5001CDCF1FE5C0DD901F0004C4FEAC0024CEA5070B2F1004F40EB830008BF20F00100704711F0804FB7
:403A000021D113F13872BCBF01F00040704741F480114FEA5252C2F11802C2F1200C10FA0CF320FA02F018BF40F001004FEAC1234FEAD32303FA0CFC40EA0C0023FA02F37E
:403A40004FEA4303CCE77FEA625307D150EA01331EBF4FF0FE4040F44000704701F0004040F0FE4040F40000704700BF4FEA4002B2F1FE4F0FD34FF09E03B3EB12620DD9BD
:403A80004FEA002343F0004310F0004F23FA02F018BF404270474FF00000704712F1610F01D1420205D110F0004008BF6FF0004070474FF000007047014B1868704700BFDC
:403AC0004881FF1F0E4B70B51E460E4C0025E41AA410A54204D056F8253098470135F8E700F0B2FC084B094C1E46E41AA4100025A54204D056F8253098470135F8E770BD7A
:403B00005444000054440000544400005C44000010B5431E0A44914204D011F8014B03F8014FF8E710BD03460244934202D003F8011BFAE7704700000EB400B54FF40271A4
:403B40009CB0ADF814106FF00041049107914FF6FF711DAB02900690084853F8042BADF81610006802A9019300F064F8029B00221A701CB05DF804EB03B070474881FF1F8C
:403B80002DE9F0478E6882469E420C46914698463ED88A8912F4906F3AD02568096902236F1A656905EB450595FBF3F57B1C43449D4238BF1D4653050FD5294600F040FB81
:403BC000064698B13A462169FFF7A2FFA38923F4906343F08003A38113E02A4600F08EFB064670B92169504600F0DEFA0C23CAF80030A3894FF0FF3043F04003A381BDE84C
:403C0000F08726613E44266046466561ED1BA560464528BF464649463246206800F0A8FAA36800209B1BA36023681E442660BDE8F08700002DE9F04F9DB003938B8980467B
:403C40001C060D4616460DD50B695BB9402100F0F7FA2860286118B90C23C8F80030CDE040236B610023099320238DF82930DFF89CB130238DF82A3037463C4614F8013B6D
:403C80001BB9B7EB060910D003E0252BF9D02746F3E74B46324629464046FFF771FF013000F0A780099B4B4409933B78002B00F0A08000234FF0FF320493079305920693FF
:403CC0008DF853301A930126052221784E4800F041FA671C049B38B14B4A3C46801A06FA00F018430490EFE7D90644BF20228DF853201A0744BF2B228DF8532022782A2A83
:403D000003D0079A00210A200BE0039A111D12680391002A10DA524243F00200079204900BE027463B780134303B092B03D800FB02320121F5E701B107923B782E2B1ED1C9
:403D40007B782A2B0AD1039B02371A1D1B680392002BB8BF4FF0FF33059310E0002319460593781C0A2407463A780130303A092A03D804FB01210123F5E703B1059103224B
:403D80003978224800F0E6F940B14023CBEB000003FA00F0049B013718430490397806221B487E1C8DF8281000F0D4F988B1194B33B9039B073323F007030833039314E0C9
:403DC00003AB00932A46144B04A94046AFF3008007E003AB00932A460F4B04A9404600F093F8B0F1FF3F824603D0099B5344099342E7AB895B0601D4099801E04FF0FF30EA
:403E00001DB0BDE8F08F00BF12440000184400001C44000000000000813B00002DE9F04791461F460A698B6806469342B8BF1346C9F8003091F843200C46DDF8208012B1BD
:403E40000133C9F800302368990642BFD9F800300233C9F80030256815F0060510D104F1190A07E00123524639463046C04701301AD00135E368D9F800209B1A9D42F1DBA9
:403E800094F843302268003318BF012392060FD5E118302081F843005A1C94F845102244023382F8431003E04FF0FF30BDE8F08704F1430239463046C0470130F4D02268E9
:403EC000D9F80050E36802F00602042A08BF5D1B2269A3680CBF25EAE57500259342C4BF9B1AED184FF000091A344D4509D00123224639463046C0470130D5D009F101098B
:403F0000F3E70020BDE8F0872DE9F04317460A7E85B06E2A984606460C460C9B01F1430E00F0AE8011D8632A22D009D8002A00F0BB80582A40F0CA8081F84520834955E073
:403F4000642A1ED0692A1CD0C0E0732A00F0B08009D86F2A2ED0702A40F0B8800A6842F020020A603EE0752A24D0782A3AD0ADE01A6801F14205111D1960136884F842308A
:403F8000A8E021681A6811F0800F02D0111D196008E011F0400F02F10401196002D0B2F9003000E01368002B3CDA2D225B4284F8432037E021681A6811F0800F02D0111DF6
:403FC000196007E011F0400F02F10401196001D0138800E01368227E5C496F2A14BF0A2208221BE078225A4984F845202268186812F0800F00F104051D6003D1550601D5A2
:40400000038800E00368D00744BF42F0200222601BB9226822F0200222601022002084F8430001E049490A226568002DA56008DB206820F0040020602BB9002D7DD175461E
:404040000CE0002B79D07546B3FBF2F002FB1033CB5C05F8013D03460028F5D1082A0BD12368DA0708D5236962689A42DEBF302305F8013C05F1FF35C5EB0E0323612EE08C
:4040800008681A6810F0800F496903D0101D1860136808E010F0400F02F104001860136801D0198000E0196000232361754616E01A68111D1960156800216268284600F0AF
:4040C00049F808B1401B6060636804E004F1420584F8422001232361002384F84330CDF800803B4603AA21463046FFF797FE013002D14FF0FF3026E023692A4639463046E4
:40410000C0470130F5D023689B0710D5002504F1190907E001234A4639463046C0470130E7D00135E368039A9B1A9D42F2DBE068039B9842B8BF184605E00B7804F14205FD
:4041400084F842308AE705B0BDE8F083234400003444000010B5C9B202449042034605D01C7801308C42F8D1184610BD002010BD884210B501EB020301D8421E0BE09842CC
:40418000FBD28118D21AD34204D013F8014D01F8014DF8E710BD994204D011F8014B02F8014FF8E710BD000038B50546002944D051F8043C0C1F002BB8BFE41800F0D4F8FB
:4041C0001E4A1368114613B96360146030E0A3420DD92268A018834201BF18685B681218226063600C6023E0A24203D813465A68002AF9D118681918A1420BD121680144B3
:4042000058188242196013D110685268014419605A600DE002D90C232B6009E021686018824201BF106852680918216062605C602846BDE8384000F098B838BD8081FF1F22
:4042400070B5CD1C25F0030508350C2D38BF0C25002D064601DBA94202D90C23336046E000F082F8234B1C681A462146A1B10B685B1B0ED40B2B03D90B60CC18CD501EE0B6
:404280008C420BBF63684B681360636018BF0C4615E00C464968E9E7174C23681BB9304600F052F820602946304600F04DF8431C18D0C41C24F00304A0420DD125603046B8
:4042C00000F053F804F10B00231D20F00700C31A0ED05A42E25070BD211A304600F034F80130EBD10C233360304600F03EF8002070BD00BF8081FF1F7C81FF1FF8B507461E
:4043000015460E4621B91146BDE8F840FFF798BF1AB9FFF749FF2846F8BD00F027F885420ED929463846FFF78BFF044650B131462A46FFF7EDFB31463846FFF735FF01E005
:404340003046F8BD2046F8BD38B5064C0023054608462360FCF704FA431C02D1236803B12B6038BDA881FF1F7047704751F8040C0028BEBF091851F8043CC018043870476F
:404380000000000000000000256C642E2530326C64460D0A00000000035B0040005B004001020000045B0040244300402D510040045B0040020040200051004010004051B3
:4043C00000403000F0510040100000000140001000140140000800400140000A004C014000020050014020006052004070020048060000006C6F670000000000706F7700F9
:40440000000000000000304300000000000030C34300232D302B2000686C4C0065666745464700303132333435363738394142434445460030313233343536373839616272
:404440006364656600000000F8B500BFF8BC08BC9E4670474D0000004D080000F8B500BFF8BC08BC9E4670472900000080440000C880FF1F880000006000000000000000CF
:4044800000000000B081FF1F01FF0000006CDC0280BB0000300000000000C05D010000000000000000000000000000000000000000000000000000000000000000000000DA
:4044C0001044000000000000000000000000000000000000000000000000000000000000000000000000000000000000000000000000000000000000000000000000000068
:40450000E880FF1F000000000000000000000000000000000000000000000000000000000000000000000000000000000000000000000000000000000000000000000000F5
:40454000000000000000000000000000000000000000000000000000000000000000000000000000000000000000000000000000000000000000000000000000000000003B
:4045800000000000000000000000000000000000000000000000000000000000000000000000000000000000000000000000000000000000000000000000000000000000FB
:4045C00000000000000000000000000000000000000000000000000000000000000000000000000000000000000000000000000000000000000000000000000000000000BB
:40460000000000000000000000000000000000000000000000000000000000000000000000000000000000000000000000000000000000000000000000000000000000007A
:020000040003F7
:0200000480007A
:400000000164004001650040010501400307014002090140370A0140190B014004160140021701405B1A0140311B014002400140014101400342014003430140024401401E
:4000400001450140044601400247014003480140034D014006500140015101408B0D8A0FE0028540E408EE08AE04E40813012F013301405449FF4AFF4BFF4F0150185280D4
:4000800059045A045B045C205D225F016040624064406540668068806A806C806E8082019201B001BE01C054C5ECC602C807C9FFCAFFCBFFCD83CE03CF01D018D401D804E7
:4000C000DA04DB04DD22DF01E040E240E440E540E680E880EA80EC80EE8006800C021E8022042A8030024280468048024C024D044F0156805D045E805F017002C010C21049
:40010000CA08CC01D081D218D6D0E002B880BE40D804DF0119409D400020032805030744081009430A0C0B1C0C400E0310101414152A175419431B341C091E10240C261142
:40014000281C2A022B552F20301F3140330F3420353836403B283E503F014063410245E046B0470C481A49FF4AFF4BFF4EF04F44500C5401580459045A045B045C115D1172
:400180005F0166C06A406B0283088580871389718B06930C952C974399719B0EB130B50FB7C0B982BB20BF01C001C540C9FFCA07CBFFCC40CD20CEF0CF05D008D904DA04C7
:4001C000DC10DD01DF01E040E1A8E240E3200050010209400A800B201120122018401A0620142220239024012550274E2B05322033043620370A38093B103F1A4004410861
:40020000474049024B104E404F0A50045310550859225A045B8086018C048D20C00BC20DC406CA0CCCE6CEE7D016D204D60FE4023320CC10A7208701A720E0409F01AF2022
:40024000EE107F04DE019708450885089708D0018704970827019F01C82074048404DE0400040C04100211011C021D01000300008080000040000000800040808000800082
:4002800000000000000B0B0000000000000000000000700010001801000000000000000000000000000000000000000000000000000000000000000000000000000000008F
:4002C00000000000000000000000000000000000000000000000000000000000000000000000000000000000000000000000000000000000000000000000000000000000FE
:4003000000000000000000000000000000000000000000000000000000000000000000000000000000000000000000000000000000000000000000000000000000000000BD
:40034000000000000000000000000000000000000000000000000000000000000000000000000000000000000000000000000000000000000000000000000000000000007D
:40038000000000000000000000000000000000000000000000000000000000000000000000000000000000000000000000000000000000000000000000000000000000003D
:0200000490006A
:0400000000004004B8
:0200000490105A
:04000000BC90ACAF55
:0200000490303A
:02000000D6B96F
:0200000490402A
:4000000000000000000000000000000000000000000000000000000000000000000000000000000000000000000000000000000000000000000000000000000000000000C0
:400040000000000000000000000000000000000000000000000000000000000000000000000000000000000000000000000000000000000000000000000000000000000080
:400080000000000000000000000000000000000000000000000000000000000000000000000000000000000000000000000000000000000000000000000000000000000040
:4000C0000000000000000000000000000000000000000000000000000000000000000000000000000000000000000000000000000000000000000000000000000000000000
:0200000490501A
:0C00000000012E16106900012E31E722CD
:00000001FF