:400000000080002011000000AD060000AD06000080B500AF024A034B1B68136000F07AFBBC760040FA46004010B5054C237833B9044B13B10448AFF300800123237010BD3C
:400040006881FF1F0000000090610000084B10B51BB108490848AFF300800848036803B910BD074B002BFBD0BDE81040184700BF000000006C81FF1F90610000C880FF1FE0
:400080000000000080B588B000AF0023FB610023FB7500F0DBFD01F085F801F051F862B60121002001F08AFB01F038FD0346002B06D001F027FD0346002B01D001F09AFE7F
:4000C000012001F08DF800F0D9FD002000F0E6FD00F00AFE0346BB82002001F081F800F0CDFD002000F0DAFD00F0FEFD03467B82B7F91420B7F912301146184600F09EFBC2
:400100000346184600F0D0FB03461A46FB691344FB61FB7D002B05D0FA69FB691B0AD31AFB6102E0FB691B02FB610123FB75FB69BB61BB691B0ABB61FB69002B02DABB6929
:400140005B42BB61BB6942F20F72934212DCBB69B3F57A7F0EDC01F0D5FC0346002B09D03B46BA690A49184605F0EEFB3B46184601F0AAFEBA69074BA3FB02135B096421B0
:4001800001FB03F3D31A4FF4FA7001F033FA8BE7986100001F85EB5180B582B000AF786039603A680021786805F0C5FB00BF0837BD4680BD80B584B000AFF860B9607A60CA
:4001C0007A68B968F86805F0ABFB00BF1037BD4680BD00BF80B483B000AF0346FB71FEE780B487B000AF7860396000233B6100237B6127E07B699B007A6813441B68BB60A6
:40020000BB68FB73BB6823F0FF03BB6014E03B695B003A6813441B781A46BB68134419463B695B003A6813445B780B703B6901333B61FB7B013BFB73FB7B002BE7D17B690B
:4002400001337B617B69152BD4D900BF1C37BD4680BC704780B582B000AF3C4B00221A803B4B50221A7004223A493B48FFF7A2FF3A4B06221A703A4B3A4A1278D2B21A701F
:40028000394B52221A70394B4FF4E2621A80384B41F251221A800023FB7019237B6013E0FB785B00DAB2334B1B78DBB203F00103DBB21343DBB203F00303FB70782003F06E
:4002C00087FA7B68013B7B607B68002B02D0FB78032BE5D17B68002B02D10320FFF77AFF254B4FF480721A80234B07221A70234B00221A70224B48221A701F4B00221A70E8
:40030000204B00221A70204B02221A701F4B04221A701F4A1E4B1B78DBB243F00103DBB213701C4A1B4B1B78DBB243F00103DBB21370194A184B1B78DBB263F07F03DBB2BF
:40034000137000BF0837BD4680BD00BF8040004082400040DC0000480041004000430040A14600400F010049004200402242004020420040254200400440004006400040DA
:400380000840004009400040014000400B400040A2430040A1430040A043004080B483B000AF134B1B78FB71124AFB7903F00703DBB21370104AFB791B09DBB213700F4B08
:4003C00042F210021A800E4B40221A700D4B84221A700D4B40F209121A800C4B01221A700B4B44221A7000BF0C37BD4680BC7047CF0100496E5800406F5800402C510040EC
:400400003C510040C05A0040425B00405B5B00407658004080B483B000AF0346FB71FB79012B0ED8FB79094A52F82330FA79074951F822201178FA790548825C0A43D2B2B9
:400440001A7000BF0C37BD4680BC7047A0610000A861000080B483B000AF0346FB71FB79012B10D8FB790A4A52F82330FA79084951F822201178FA790648825CD243D2B228
:400480000A40D2B21A7000BF0C37BD4680BC7047A0610000A861000080B483B000AF0346FB71FB79012B24D8FA79FB791344FB71FB79124A52F82330FA79104951F822200D
:4004C0001178FA790E48825C0A43D2B21A70FB790133FB71FB79094A52F82330FA79074951F822201178FA790548825C0A43D2B21A7000BF0C37BD4680BC7047AC61000024
:40050000BC61000080B483B000AF0346FB71FB79012B28D8FA79FB791344FB71FB79144A52F82330FA79124951F822201178FA791048825CD243D2B20A40D2B21A70FB792A
:400540000133FB71FB790A4A52F82330FA79084951F822201178FA790648825CD243D2B20A40D2B21A7000BF0C37BD4680BC7047AC610000BC61000080B582B000AF72B6AE
:40058000394B61221A70FFF765FE374BC1221A70364A364B1B78DBB243F00403DBB213700023FB7113E0FA7913465B0013445B002F4A13443B603B681A683B689B889BB2F9
:4005C00019461046FFF7E8FDFB790133FB71FB79072BE8D927494FF09040FFF701FE264B0A221A70254A254B1B78DBB243F00203DBB21370224A224B1B78DBB243F00203DD
:40060000DBB213701F4A1F4B1B78DBB243F04003DBB213701C4A1C4B1B78DBB243F01003DBB213700A2219491948FFF7C3FD082218491948FFF7BEFD082218491848FFF7CB
:40064000B9FD184A174B1B78DBB243F00803DBB21370FFF7A3FE0E220A491348FFF7AAFD00BF0837BD4680BD00480040E8460040C0610000580000488358004003500140DC
:4006800013500140A0430040C2430040C0000048F0510040CC00004812510040D40000482251004022430040B043004080B500AF05F00AF903461B680C2B00D1FEE7FEE7CD
:4006C00080B584B000AF7860104B1A687B6813441A460F4BD31AB3F5007F09DC0B4B1B68FB600A4B1A687B681344084A136007E005F0EAF802460C2313604FF0FF33FB60C2
:40070000FB6818461037BD4680BD00BFCC80FF1F8082FF1F80B586B000AF224B7B61224B3B61204B7B6135E03B691B68FB603B695B68BB603B699B683B6000237B600CE030
:40074000FB681A68BB681A60BB680433BB60FB680433FB607B6804337B607A683B689A42EED13B69DB683B6000237B6008E0BB6800221A60BB680433BB607B6804337B60E7
:400780007A683B689A42F2D13B6910333B617B69013B7B617B69002BC6D105F09BF8FFF771FCFEE701000000DC63000080B582B000AF184B184A1A60184A184B1B6843F40C
:4007C0000073136000237B600FE07B68032B04D8134A7B6852F8233000E0124B12497A6841F822307B6801337B607B682F2BECD90E4B1B78DAB20E4B1A700E4B0A4A1A60E1
:40080000FFF7BAFE0C4B00221A6000BF0837BD4680BD00BF0CED00E00004FA0514ED00E000000000AD0600000080FF1FBC760040C480FF1F08ED00E0C080FF1F80B485B09C
:4008400000AF03460A46FB801346BB80B7F9043042F2EE5202FB03F3BB60B7F90630002B0CDAFB885B429BB2FB81FB895B089BB2FB81FB895B429BB2FB8103E0FB885B0878
:400880009BB2FB81B7F90E30BA681344BB60B7F90630BA6892FBF3F3BB60BB6818461437BD4680BC704700BFB0B586B000AF7860786804F06DFC03460C461846214602F025
:4008C000D5FF03460C461846214604F087FF03467B61786904F07EFC33A3D3E9002304F0CDFC03460C461846214631A3D3E9002304F012FB03460C4625461C46786904F013
:4009000069FC4FF00002304B03F030F82AA3D3E9002304F0B3FC02460B462046294604F0FBFA03460C461846214604F057FF03463B61386904F04EFC03460C461A46234603
:400940004FF00000214904F0C3FD03460C46184621461BA3D3E9002304F0DCFA03460C46184621464FF00002194B04F087FC03460C46184621464FF00002164B04F0CCFA1B
:4009800003460C461846214604F028FF0346184604F074FF0346FB81B7F90E3018461837BD46B0BDAFF30080967E013EF1FC2F3F3707C1C73D6D463F6391AADD23A4583E41
:4009C0006666666666127140000008400000F03F000059400000E03F80B582B002AF324B01221A70314B00221A70102000F0E8FC102000F0CBFD07211D2000F059FE2C4B8E
:400A000004221A702B4B00221A702B4B00221A702A4A2A4B1B78DBB243F01803DBB21370274B00221A70274B00221A70264B00221A70264B0A221A70254B00221A70254B4F
:400A400000221A70244B5B221A70244B5E221A70234B00221A70234B14221A700123009310234FF4004249F2DA01042000F040FA1D4A0D4B1B78DBB2013B1C499B000B4456
:400A80009B7813701A4A084B1B78DBB2013B174931F823301380044B1B78DBB2184600F077F900BFBD4680BDD080FF1F8481FF1F96580040975800409E580040075B00402C
:400AC00093580040885B0040895B004080580040815800408358004088580040895800408D580040014E00400E4E00408881FF1F0C4E004080B582B000AF02F071FE034626
:400B0000FB71444B1B78BB71434A434B1B78DBB243F00103DBB213703F4A3F4B1B78DBB243F01003DBB213703C4A3C4B1B78DBB243F00103DBB21370384A384B1B78DBB257
:400B400043F01003DBB21370354A354B1B78DBB243F00203DBB21370324A324B1B78DBB243F00203DBB213702F4A2F4B1B78DBB243F00303DBB21370032000F05DFD284A1C
:400B8000274B1B78DBB223F00203DBB21370254A244B1B78DBB223F00203DBB21370234A224B1B78DBB243F00603DBB21370204B7A221A701F4A1F4B1B78DBB243F0010354
:400BC000DBB213701C4A1C4B1B78DBB243F00103DBB21370194A194B1B78DBB243F00103DBB21370164A164B1B78DBB243F00103DBB21370134B4FF000521A60124B4FF056
:400C000000521A60FB79184602F0EEFD00BF0837BD4680BDD080FF1FAA430040BA430040F8460040F9460040915800407758004082580040A1430040B1430040A243004057
:400C4000B243004080E200E000E100E080B500AF084B1B78002B09D1074B1B78DBB2002B01D1FFF7B9FE034B01221A70FFF742FF00BF80BD8681FF1F8781FF1F80B400AFF5
:400C8000054A054B1B78DBB243F00103DBB2137000BFBD4680BC7047004E004080B485B000AF0346FB710D4B1B78DBB2002B03D00B4B1B78FB7305E00A4B1B78DBB203F004
:400CC0000103FB73FB7B012B02D0FB79002BEAD0FB7B18461437BD4680BC70478581FF1F8481FF1F014E004080B483B000AF224B1B78DBB203F00303FB70FB78012B0BD841
:400D00001E4B1B889BB27B607B681B041C4A128892B213437B6020E0FB78022B12D1174B1B889BB27B607B681B04154A1278D2B213437B60134B1B78DBB21B027A681343E5
:400D40007B600AE00E4B1B889BB27B600B4B1B889BB21B047A6813437B600B4B1B78DBB2002B02D0094B00221A707B6818460C37BD4680BC704700BF144E0040124E004024
:400D8000104E0040114E00408581FF1F8481FF1F80B582B000AF0346FB71374B00221A70FB79012B63D1354B30221A70344B04221A70344B07221A70334B00221A70334B7D
:400DC00000221A70324B3F221A70324B00221A70314B00221A70314B00221A70304B01221A70304B50221A702F4B27221A702F4B2C221A702E4B00221A702E4B55221A7089
:400E00002D4B5A221A702D4B05221A702C4B02221A702C4B12221A702B4B28221A702B4BEB221A70442000F01BF9294B58221A70284B00221A70284B01221A70274B0122A6
:400E40001A70274B00221A70264B0A221A70264B4FF4FA421A600121032000F0F3F90121102000F0D5FA21491D2000F0F9FB00BF0837BD4680BD00BF8581FF1F004E0040CD
:400E8000024E0040034E0040044E0040054E0040064E0040084E0040094E00400A4E0040144E0040845800408558004086580040875800408A5800408B5800408C58004012
:400EC0008E5800408F580040905800409158004094580040955800409A5800409B5800409C5800409D5800409C81FF1FDD10000090B587B000AF0446084611461A46234622
:400F0000FB710346BB800B467B801346BB7197F82830002B00F08B8097F82830012B00F28680FB79013B092B4AD801A252F823F0590F0000C10F0000C10F0000590F000062
:400F4000C10F0000C10F0000730F00008D0F0000C10F0000A70F0000BB790F2B04D9374B1B78DBB2FB752EE0354B1B78DBB2FB7529E0BB790F2B04D9324B1B78DBB2FB7551
:400F800021E0314B1B78DBB2FB751CE0BB790F2B04D92E4B1B78DBB2FB7514E02C4B1B78DBB2FB750FE0BB790F2B04D9294B1B78DBB2FB7507E0284B1B78DBB2FB7502E0CF
:400FC0000023FB7500BFBA8897F917305B0113443B617B883A6902FB03F3FB60FB68DB0BBB82BB790D2B12D8BA8ABB79C3F10E0342FA03F3BB8297F82830013BBA79013232
:40100000D1B2164A9B0013440A469A7007E097F82830013B114A9B0013440F229A7097F82830013B0D49BA8A21F8232002E0002000F0D4FA00BF1C37BD4690BD1801004952
:401040001C010049190100491D0100491A0100491E0100491B0100491F0100498881FF1F80B584B000AF0346FB7102F0B9FB0346FB73174A164B1B78DBB243F00303DBB2AD
:401080001370144A134B1B78DBB243F00303DBB21370114AFB791370032000F0CDFA0C4A0B4B1B78DBB223F00303DBB21370094A084B1B78DBB223F00303DBB21370FB7B02
:4010C000184602F091FB00BF1037BD4680BD00BFF8460040F94600409258004080B400AF00BFBD4680BC704780B500AF032000F039F800BF80BD00BF80B400AF0D4A0D4BDB
:401100001B78DBB243F06003DBB213700A4A0A4B1B78DBB243F00203DBB21370074A074B1B78DBB243F00203DBB2137000BFBD4680BC704777580040A4430040B4430040AB
:4011400080B500AF064B1B78002B04D1044B01221A70FFF7C9FFFFF7CFFF00BF80BD00BF8C81FF1F80B483B000AF0346FB710C4A0B4B1B78DBB223F00303DBB21370084932
:40118000074B1B78DAB2FB7903F00303DBB21343DBB20B7000BF0C37BD4680BC704700BF5A58004080B582B000AF0023FB710AE0FB791846FFF74EF9FB791846FFF7A2F9BC
:4011C000FB790133FB71FB79012BF1D9034BFF221A7000BF0837BD4680BD00BFD180FF1F80B582B000AF0346FB710C4B1B78FF2B04D00A4B1B78184600F012F8FB79184647
:40120000FFF708F9FB791846FFF746F9034AFB79137000BF0837BD4680BD00BFD180FF1F80B582B000AF0346FB71FB791846FFF711F9FB791846FFF765F900BF0837BD463C
:4012400080BD00BF80B584B000AF03460A46FB8013467B7100F0CEF80346FB7300F0A4F80346BB81FA88BB899A4200F08880464B1B78DBB203F00103FB72FB7B002B20D142
:40128000BB89002B02D0FB88002B1AD1BB89002B0BD13E4AFB8813803D4A3D4B1B78DBB223F04003DBB2137069E0394A384B1B78DBB243F04003DBB21370344AFB8813804D
:4012C0005DE0FB7A002B33D0324B00221A70324B01221A70314B00221A70314A304B1B78DBB203F07F03DBB21370294B1B78DBB203F00803002B02D0FB88002B18D1294A5F
:40130000BB891380234B07221A7000BF214B1B78DBB203F00103002BF8D11B4A1A4B1B78DBB223F00103DBB213701A4B00221A70154B1B78DBB203F00103002B13D0194A75
:40134000FB881380134A7B79002B01D0032300E00123137000BF0F4B1B78DBB203F00103002BF8D10BE0094AFB8813800649064B1B78DAB2FB7A1343DBB20B70FFE700BFAE
:401380001037BD4680BD00BFA24300408040004082400040014000401040004014400040084000400240004080B400AF034B1B889BB21846BD4680BC704700BF80400040DD
:4013C00080B483B000AF0346FB710949084B1B78DBB25AB297F9073023F007035BB213435BB2DBB20B7000BF0C37BD4680BC70478240004080B400AF044B1B78DBB203F0B6
:401400000703DBB21846BD4680BC70478240004080B584B000AF03460A46FB8013467B7100F0CEF80346FB7300F0A4F80346BB81FA88BB899A4200F08880464B1B78DBB285
:4014400003F00103FB72FB7B002B20D1BB89002B02D0FB88002B1AD1BB89002B0BD13E4AFB8813803D4A3D4B1B78DBB223F04003DBB2137069E0394A384B1B78DBB243F07C
:401480004003DBB21370344AFB8813805DE0FB7A002B33D0324B00221A70324B01221A70314B00221A70314A304B1B78DBB203F07F03DBB21370294B1B78DBB203F00803BD
:4014C000002B02D0FB88002B18D1294ABB891380234B07221A7000BF214B1B78DBB203F00103002BF8D11B4A1A4B1B78DBB223F00103DBB213701A4B00221A70154B1B78A2
:40150000DBB203F00103002B13D0194AFB881380134A7B79002B01D0032300E00123137000BF0F4B1B78DBB203F00103002BF8D10BE0094AFB8813800649064B1B78DAB26F
:40154000FB7A1343DBB20B70FFE700BF1037BD4680BD00BFA14300400041004002410040014000401440004010400040084000400240004080B400AF034B1B889BB2184657
:40158000BD4680BC704700BF0041004080B483B000AF0346FB710949084B1B78DBB25AB297F9073023F007035BB213435BB2DBB20B7000BF0C37BD4680BC70470241004082
:4015C00080B400AF044B1B78DBB203F00703DBB21846BD4680BC70470241004080B483B000AF0346FB7101BE00BF0C37BD4680BC704700BF80B582B000AF786008E00C4BCA
:401600001B68184602F0E4F87B68A3F500437B607B68B3F5004FF2D8064B1B687A6802FB03F3184602F0D4F800BF0837BD4680BDE080FF1FD880FF1F80B582B000AF034668
:40164000FB80FB88054A127802FB03F3184602F0BFF800BF0837BD4680BD00BFDC80FF1F80B584B000AF03463960FB710F4B1B68FB60FB791F2B02D90020FFF7AFFFFB79B3
:4016800003F01F0310339B00FA6813441B68BB60FB7903F01F0310339B00FA6813443A681A60BB6818461037BD4680BD08ED00E080B582B000AF03460A46FB711346BB7127
:4016C000BB79072B02D90020FFF788FFFB791F2B02D90020FFF782FFFB7903F01F0303F1604303F56443BA795201D2B21A7000BF0837BD4680BD00BF80B483B000AF78609E
:40170000264B1B78DBB21A467B681A60244B1B78DBB21B027A6812681A437B681A60214B1B78DBB21B047A6812681A437B681A601D4B1B78DBB21B067A6812681A437B6893
:401740001A607B680433194A1278D2B21A60184B1B78DBB21A027B6804337968043109680A431A60134B1B78DBB21A047B6804337968043109680A431A600F4B1B78DBB265
:401780001A067B6804337968043109680A431A6000BF0C37BD4680BC704700BF0301004904010049EC460040020100490101004900010049050100490601004980B582B0F6
:4017C00000AF03460A46FB711346BB71094B1B78002B04D100F010F8064B01221A70BA79FB791146184600F0D9F800BF0837BD4680BD00BF8D81FF1F80B582B000AF01F086
:40180000EFFF0346FB71544A534B1B78DBB243F00103DBB21370514A504B1B78DBB243F00103DBB213704E4B01221A704D4B02221A704D4A4C4B1B78DBB203F07F03DBB2E9
:4018400013700020FFF7F8FE484A484B1B78DBB223F00603DBB21370454A454B1B78DBB223F02003DBB21370404A404B1B78DBB243F00103DBB213700120FFF7DDFE28202D
:40188000FFF7DAFE3B4A3B4B1B78DBB203F07F03DBB21370374A374B1B78DBB223F04003DBB21370314A314B1B78DBB243F00203DBB213700220FFF7BFFE2C4A2B4B1B786E
:4018C000DBB243F00403DBB213702B4B00221A702A4B00221A70FB79184601F085FF07211720FFF7E5FE26491720FFF7B9FE07211820FFF7DDFE23491820FFF7B1FE07215A
:401900001520FFF7D5FE20491520FFF7A9FE07210020FFF7CDFE1D490020FFF7A1FE07210120FFF7C5FE1A490120FFF799FE07210220FFF7BDFE17490220FFF791FE07210D
:401940000C20FFF7B5FE14490C20FFF789FE00BF0837BD4680BD00BFA5430040B54300409D60004009600040106000409443004012600040F85100408460004085600040FE
:401980004D270000352000004127000059260000A1260000ED2600005927000080B582B000AF03460A46FB711346BB712E4AFB7913702E4B00221A702D4B00221A702D4B4D
:4019C00000221A702C4B00221A702C4B00221A702B4B00221A702B4B00221A702A4B4FF400021A60284B4FF080721A60264B4FF400121A60244B01221A60234B02221A6007
:401A0000214B04221A60BB79002B02D0012B09D011E01E4A1D4B1B78DBB223F00103DBB2137011E0194A194B1B78DBB243F00103DBB2137008E0154A144B1B78DBB243F044
:401A40000103DBB2137000BF114B03221A70114B80221A70012001F0BBFE0F4B04221A7000BF0837BD4680BDBD81FF1FC081FF1FDC81FF1FDF81FF1FD481FF1FDE81FF1F49
:401A8000E181FF1FBC81FF1F00E100E00960004028600040086000401260004080B400AF0F4B00221A700F4B00221A700E4B00221A700E4B00221A700D4B00221A700D4B6A
:401AC00000221A700C4B00221A700C4B03221A700B4B80221A7000BFBD4680BC704700BFC081FF1FDC81FF1FDF81FF1FD481FF1FDE81FF1FE181FF1FBC81FF1F2860004050
:401B00000860004080B400AF034B1B78DBB21846BD4680BC704700BFDF81FF1F80B483B000AF0023FB71084B1B78DBB2002B05D0054B1B78FB71044B00221A70FB791846E7
:401B40000C37BD4680BC7047DC81FF1FB0B485B000AF03463960FB711346BB80FB79002B6DD0FB79082B6AD8B988FA79364813465B0013449B00034406331B889BB2C3F5C2
:401B8000007399420CD9FA792F4913465B0013449B000B4406331B889BB2C3F50073BB802A4CF979BB881B0A9BB2D8B2FA79264D13465B0013449B002B4403331B78DBB20B
:401BC0000343DAB20B0123441A70204AFB79B988C9B21B01134401330A461A703B68002B13D00023FB810CE01948FB79FA8939680A4412781B01034408331A70FB8901330E
:401C0000FB81FA89BB889A42EED3FA790E4913465B0013449B000B44013300221A700B48F979FA79084C13465B0013449B00234405331B78DAB20B01034402331A7000BF65
:401C40001437BD46B0BC7047E481FF1FFC5F00407060004090B482B000AF0346FB71FB79002B1CD0FB79082B19D8FA790E4913465B0013449B000B44013300221A700B48D6
:401C8000F979FA79084C13465B0013449B00234405331B78DAB20B01034402331A7000BF0837BD4690BC7047E481FF1FFC5F004080B582B000AF0023FB71314B1B79DBB211
:401CC000184600F067F80346BB712D4B1B78DBB25BB2002B15DA2A4B5B78DBB2212B00D048E0284B07221A80BA791346DB009B1A254A1344234A536000F016FB0346FB71FC
:401D000038E01F4B5B78DBB2202B02D0222B1AD030E01C4B07221A80BA791346DB009B1A194A1344174A5360BB79BA7917498A5CD2B242F00102D1B2144AD15400F072FB80
:401D40000346FB7116E0BB790D4A9278D2B291B20F4A22F81310BB79BA790C498A5CD2B242F00202D1B2094AD15400F0F9FB0346FB7100BFFB7918460837BD4680BD00BF07
:401D800000600040C881FF1FE480FF1FA481FF1FB881FF1F80B485B000AF0346FB710023FB73FF23BB7317E0FB7B104AD35C7B737A7B0F4913465B0013449B000B440A33EF
:401DC0001B78DBB2FA799A4203D1FB7BBB730223FB73FB7B0133FB73FB7B012BE4D9BB7B18461437BD4680BC704700BFAC81FF1FE481FF1F80B582B000AF0023BB71224BBE
:401E000000221A70214B00221A70204B00225A700023FB7110E0FB791D4AD35C7B717B79002B06D07B79082B03D87B791846FFF711FFFB790133FB71FB79012BEBD9154BEB
:401E40001B78DBB2002B18D0114B1B78DBB2002B13D0114B1B78DBB2002B0ED00D4B1B78DBB2082B09D80A4B1B78DBB2082B04D8094B1B78DBB2082B01D90123BB71BB790B
:401E800018460837BD4680BD8E81FF1FA481FF1FB081FF1FA881FF1FAC81FF1F80B485B000AF78600023FB8102E0FB890133FB81FB897A6813441B78002BF6D1FB8918462B
:401EC0001437BD4680BC704780B584B000AF78600023BB81304B1B781A46304B9B5CFB727868FFF7DBFF0346FB81FA7A2C4913465B0013449B000B4408331B889BB2FA8904
:401F00009A420AD9FA7A264913465B0013449B000B4408331B889BB200E0FB893B81BB897A68D1183A89FB7A1846FFF70FFEFA893B89D31AFB81FB89002B0CD1FA7A184906
:401F400013465B0013449B000B4408331B889BB23A899A4219D1BA893B891344BB8100BFFA7A0F4913465B0013449B000B4401331B78DBB2002BF3D0FB89002B05D1FB7A62
:401F8000002200211846FFF7E1FDFB89002BACD100BF1037BD4680BD8E81FF1FA881FF1FE481FF1F80B485B000AF78600B46FB701346BB707B68DB7803F00303FB737B6893
:401FC0009B785BB2002B1ADAFB7B032B0AD0BB7803F001031449FA78CA54BB7843F00103BB701BE0BB789B08DBB203F001030F49FA78CA54BB7843F00403BB700EE0FB7B3F
:40200000032B0BD0BB785B08DBB203F001030849FA78CA54BB7843F00203BB70BB7818461437BD4680BC7047A881FF1FAC81FF1FB081FF1F80B582B000AF374B1B78BB71FC
:40204000BB7903F01003002B62D00123FB7197F90630002B12DABB7903F00F03012B02D00023FB711CE000F061F82C4B1B78DBB25BB2002B14DA0023FB7111E0BB7903F0ED
:402080004003002B02D000F095F809E0BB7903F02003002B02D000F0B3F801E00023FB71FB79002B34D01C4B1B78BB7197F90630002B2DDB1A4B1B78DAB21A4B1B78DBB25D
:4020C0001343BB71184ABB791370174B1B78DBB2BA799A421CD1114B1B78FB710E4B1B78DBB223F07F03BB71BB79002B0AD10A4B0A4A1278D2B21A70074B1B78DBB203F052
:402100000F03FB71054B1B78DBB2FA799A42E2D100BF0837BD4680BD28600040DD81FF1F5282FF1FE081FF1F2960004080B582B000AF1D4B1B78FB711B4AFB7913701A4BB5
:402140001B78FB7197F90730002B03DA174AFB79137025E0022000F045FA154B1B78DBB203F06003202B08D0402B0BD0002B0ED100F0F8FA0346FB710CE001F039FB0346A9
:40218000FB7107E001F0F8FA0346FB7102E00023FB7100BFFB79002B02D1044B03221A7000BF0837BD4680BD28600040DD81FF1F0060004080B500AF104B1B78DBB2062BE2
:4021C00019D801A252F823F0F7210000F7210000E5210000F7210000EB210000F7210000F121000000F0F8F806E000F0A7F903E000F0D2F900E000BF00BF80BDC081FF1F7C
:4022000080B500AF124B1B78DBB2062B1DD801A252F823F04B2200004B220000312200004B220000372200004B2200003D22000000F0D8F80AE000F027F907E0032000F0A4
:40224000D1F9044B03221A7000E000BF00BF80BDC081FF1FDD81FF1F80B483B000AF0023FB71294B1B78DBB29AB2284B1B889BB213449AB2254B1A8015E02549FB79254A45
:4022800052681278D2B2CA54224B5B680133214A5360FB790133FB711E4B1B889BB2013B9AB21C4B1A801B4B1B889BB2002B02D0FB79072BE1D9144B1B78DBB2082B02D089
:4022C000FB79002B0FD0144B1B78DBB283F07F03DB43DAB2104B1A70104B0F221A70104B02221A7005E00D4B02221A700C4B02221A700C4AFB791370034AFB79137000BFFE
:402300000C37BD4680BC7047BC81FF1FBE81FF1F00600040C881FF1F5282FF1FDD81FF1FC081FF1FE081FF1F80B582B000AF164B1B889BB2002B02D100F02EF81EE0134B82
:4023400002221A70124B00221A7000F06BF9114BDB79DBB29BB21B029AB20E4B9B79DBB29BB21343FB80084B1B889BB2FA889A4202D2054AFB881380FFF76EFF0123184688
:402380000837BD4680BD00BFC881FF1FC081FF1F5282FF1F0060004080B400AF094B02221A70094B80221A70084B0F221A70084B00221A70074B00221A7001231846BD4692
:4023C00080BC7047C081FF1F5282FF1FDD81FF1FBC81FF1FE081FF1F80B500AFFFF73CFF00BF80BD80B500AF0A4B1B78DBB29AB2094B1B889BB213449AB2074B1A80074B68
:4024000000221A70012000F0EDF8054B03221A7000BF80BDBC81FF1FBE81FF1FC081FF1FDD81FF1F80B582B000AF124B04221A70114B80221A7000F0F5F8104BDB79DBB2A8
:402440009BB21B029AB20D4B9B79DBB29BB21343FB800B4B1B889BB2FA889A4202D2084AFB881380074B0B221A70012318460837BD4680BDC081FF1F5282FF1F00600040B4
:40248000C881FF1FDD81FF1F80B483B000AF0023BB71234B1B78DBB203F00F03DBB2023BFB71FB799AB21F4B1B889BB213449AB21C4B1A8018E01C4B5B681C49BA798A5CAD
:4024C000D2B21A70184B5B680133174A5360BB790133BB71FB79013BFB71134B1B889BB2013B9AB2104B1A800F4B1B889BB2002B02D0FB79002BDED10D4AFB7913700D4BAA
:402500001B78DBB283F07F03DB43DAB2094B1A70094B0B221A7000BF0C37BD4680BC704729600040BE81FF1FC881FF1F00600040E081FF1F5282FF1FDD81FF1F80B500AFFD
:40254000054B00221A70012000F04CF8034B03221A7000BF80BD00BFC081FF1FDD81FF1F80B400AF084B06221A70084B06221A70074B80221A70074B00221A70012318468C
:40258000BD4680BC704700BFC081FF1FDD81FF1F5282FF1FE081FF1F80B500AF0D4B1B78DBB2002B0AD00C4A0A4B1B78DBB263F07F03DBB21370074B00221A70074B002297
:4025C0001A70012000F00EF8054B03221A7000BF80BD00BFDE81FF1F08600040C081FF1FDD81FF1F80B483B000AF0346FB710B4B9B68002B0CD0094B9B68FA791A70074BAF
:402600009B68074A128892B25A80044B00229A6000BF0C37BD4680BC704700BFC881FF1FBE81FF1F80B400AF094B00221A80094B9B68002B07D0074B9B6800221A70054B0B
:402640009B6800225A8000BFBD4680BC704700BFBE81FF1FC881FF1F80B400AF0D4B01221A700D4B9B7C0D4B1B7BDBB203F00303012B08D0094BDB7BDBB283F07F03DB430A
:40268000DAB2064BDA73054B01225A7300BFBD4680BC70470B600040FC5F0040E481FF1F80B400AF0E4B02221A700E4B93F822300D4B1B7EDBB203F00303012B08D00A4B42
:4026C000DB7EDBB283F07F03DB43DAB2064BDA76054B01225A7600BFBD4680BC704700BF0B600040FC5F0040E481FF1F80B400AF104B04221A70104B93F832300F4B93F819
:402700002430DBB203F00303012B0AD00B4B93F82730DBB283F07F03DB43DAB2074B83F82720064B012283F8252000BFBD4680BC704700BF0B600040FC5F0040E481FF1FD0
:4027400080B400AF00BFBD4680BC704780B500AFFFF7A4F900BF80BD80B500AF01F026F800BF80BD80B586B000AF0023FB75B04B1B78FB7100233B61AE4B00221A8097F9B4
:402780000730002B80F2FD80A94B5B78DBB20A2B00F2168201A252F823F000BFD9280000C12B0000C12B0000C12B0000C12B0000C12B0000C9270000C12B00004D29000007
:4027C000C12B000063290000994BDB78DBB2012B0ED100F049FEB860BB685B68954A5360944B12221A80FFF79FFD0346FB75E9E18F4BDB78DBB2022B25D18D4B9B78DBB2B4
:40280000184600F009FEB860BB68002B00F0DA81BB685B68874A5360864B5B6803331B78DBB29BB21B029AB2824B5B6802331B78DBB29BB213439AB27E4B1A80FFF774FDEA
:402840000346FB75BEE17A4BDB78DBB2032B3ED10023FB73784B3B6109E03B691B78BB71BB793A6913443B61FB7B0133FB73704B9B78DBB2FA7B9A4204D23B691B78DBB2BA
:40288000002BEAD16A4B9B78DBB2002B0BD0684B9B78DAB2694B1B7C9A4204D1684800F0ABF9674B3B613B691B78DBB2002B00F089813B691B78DBB29AB25E4B1A805D4A14
:4028C0003B695360FFF730FD0346FB757AE100F08FFF0346FB7575E1FB7903F00303002B20D0022B00D030E0524B02221A80504B1B79DBB203F07F02524913465B001344F7
:402900009B000B4402331B78DAB24F4B1A704E4B00225A70474B4C4A5A60FFF705FD0346FB7512E0434B02221A80484B1B78DAB2454B1A70444B00225A703E4B424A5A60C9
:40294000FFF7F2FC0346FB7500BF42E1394B01221A80384B3E4A5A60FFF7E6FC0346FB7537E1344B01221A80314B1B79DBB21A46384B13442F4A5360FFF7D6FC0346FB7569
:4029800027E12B4B5B78DBB2013B0A2B00F21C8101A252F823F000BFA52A0000C92B0000332B0000C92B0000C5290000C92B0000C92B0000C92B0000D9290000C92B0000A5
:4029C000612A00001A4B9B78DAB2234B1A70FFF7C7FD0346FB75FCE0154B9B787B717B79002B06D07B79013BDBB2184600F014FDB8607B79002B02D0BB68002B03D17B7972
:402A0000002B40F0E380124B1B78DBB27A799A4208D00F4A7B791370104B01221A70012000F0F2F9FFF79CFD0346FB75CEE000BF00600040C881FF1F5C6200000462000000
:402A40005882FF1FE481FF1F9081FF1FE181FF1FDF81FF1F5082FF1FDE81FF1FDC81FF1F00F052FE0346002B00F0B2805B4B1B793B715A4B1B79DAB2594B1A703B79594AC0
:402A8000D35CDAB23B795849CB5CDBB29A4204D0564B01221A7000F091FBFFF761FD0346FB7595E0FB7903F00303012B20D0012B0CD3022B00D03BE0484B9B78DBB2002B4C
:402AC00031D100F07DFD0346FB752CE0434B9B78DBB2012B29D1464B1B78DBB223F00203DAB2434B1A70FFF73BFD0346FB751CE03A4B1B79DBB2012B19D8384B9B78DBB21B
:402B0000DB43DBB2354A1279D2B211461046394A125CD2B21340DAB2364B5A54FFF720FD0346FB7503E000BF53E000BF51E000BF4FE0FB7903F00303012B20D0012B0CD319
:402B4000022B00D03BE0254B9B78DBB2002B31D100F0C2FC0346FB752CE0204B9B78DBB2012B29D1224B1B78DBB243F00203DAB21F4B1A70FFF7F4FC0346FB751CE0174B1A
:402B80001B79DBB2012B19D8144B9B78DBB2DB43DBB2124A1279D2B211461046154A125CD2B21340DAB2134B5A54FFF7D9FC0346FB7503E000BF0CE000BF0AE000BF08E077
:402BC00000BF06E000BF04E000BF02E000BF00E000BFFB7D18461837BD4680BD00600040D481FF1FC481FF1F5082FF1FDC81FF1FE181FF1F5482FF1FB0B58AB000AF7860AE
:402C0000324B07F114041D460FCD0FC42B682370002387F826307B68002B52D07B6822221A707B68013303221A7007F10C031846FEF762FD022387F827303EE097F8273078
:402C40007A68134497F8262007F128010A4412F81C2C1209D2B207F128010A4412F8142C1A7097F8273001337A68134400221A7097F8273002337A68134497F8262007F183
:402C800028010A4412F81C2C02F00F0207F128010A4412F8142C1A7097F8273003337A68134400221A7097F82630013387F8263097F82730043387F8273097F82730212BF1
:402CC000BCD900BF2837BD46B0BD00BFF061000090B482B000AF0123FB7180E0464AFB791B0113440C221A70FA79444913465B0013449B000B4405331B78DBB2002B1CD0F9
:402D0000FA793E4913465B0013449B000B4404331B78DBB25BB2002B07DA394AFB791B01134402330C221A700EE0354AFB791B011344023308221A7006E0314AFB791B01AF
:402D40001344023380221A702B48F979FA792B4C13465B0013449B00234406331B889BB2DAB20B01034406331A702348F979FA79224C13465B0013449B00234406331B884D
:402D80009BB21B0A9BB2DAB20B01034407331A701948F979FA79194C13465B0013449B00234406331B889BB2DAB20B01034404331A701148F979FA79104C13465B0013448B
:402DC0009B00234406331B889BB21B0A9BB2DAB20B01034405331A70FB790133FB71FB79082B7FF67BAF074BFF221A7000BF0837BD4690BC704700BF70600040E481FF1FE8
:402E0000FC5F00400A60004080B58AB000AF0346FB7100237B84002387F8273050E097F82720B34913465B0013449B000B4400221A7097F82720AE4913465B0013449B0049
:402E40000B44023300221A7097F82720A84913465B0013449B000B44033300221A7097F82720A34913465B0013449B000B44083300221A8097F827209D4913465B0013440F
:402E80009B000B440A3300221A7097F82720984913465B0013449B000B44013300221A7097F82720924913465B0013449B000B44053300221A7097F82730013387F8273039
:402EC00097F82730082BAAD9FB79002B16D0002387F825300EE097F82530864A0021D15497F82530844A0021D15497F82530013387F8253097F82530012BECD97F4B1B78BC
:402F0000DBB2002B00F051810023FB767B4B1B78DBB2013BDBB2184600F07EFA78617B695B683B613B6907331B7803F04003002B08D0734B1B78DBB243F00103DAB2704BEC
:402F40001A7007E06E4B1B78DBB223F00103DAB26B4B1A707B6908337B617B691B7887F82730012387F82530B6E07B695B68FB61002387F82630A3E097F82520FB699B7885
:402F800003F07F039A4240F0938097F82520584913465B0013449B000B4408331B889AB2FB699B889A420CD297F82520FB6998884F4913465B0013449B000B440833024640
:402FC0001A80FB691B781A464A4B9B5CDAB2FB695B789A426CD197F82520FB699878444913465B0013449B000B44043302461A7097F82520FB69D8783D4913465B0013448C
:403000009B000B4402461A70FB69DB7803F00303FB73FB699B785BB2002B1CDA97F82520FB7B012B01D1072000E00D20304913465B0013449B000B44053302461A7097F88E
:4030400025202B4913465B0013449B000B44013301221A701BE097F82520FB7B012B01D1052000E00920224913465B0013449B000B44053302461A7097F825201C49134654
:403080005B0013449B000B44013300221A70FB699B790A2B03D0FB699B79022B08D1FA7E97F825301946F869FEF77CFF0346FB76FB690833FB6197F82630013387F8263067
:4030C00097F8262097F827309A42FFF455AF97F82530013387F8253097F82530082B7FF644AF7B695B68FB61002387F8253020E0E481FF1F5082FF1FC481FF1FDF81FF1F89
:40310000E181FF1FFB699B7803F07F02FB691878284913465B0013449B000B440A3302461A70FB690833FB6197F82530013387F8253097F8252097F827309A42E2D300F099
:40314000A5F902461C4B1A6000237B84012387F8273024E097F82720164913465B0013449B000B4406337A8C1A8097F82720114913465B0013449B000B4408331B889AB216
:403180007B8C13447B847B8C03F001039AB27B8C13447B8497F82730013387F8273097F82730082BD6D9FFF793FD00BF2837BD4680BD00BFE481FF1FD881FF1F90B585B03C
:4031C00000AF8F4B1B78DBB2002B00F015818C4B1B78DBB2013BDBB2184600F01DF978607B6808337B607B681B78FB707B685B68BB60844B1B78BB700023FB73F7E0BB68C6
:403200001B78BA789A4240F0EC80BB787E4AD35CDAB2BB685B789A4240F0E380BB689B7803F07F037B70BB68DB7803F003033B707A78764913465B0013449B000B440333AA
:4032400000221A707A78BB689878704913465B0013449B000B44043302461A707A78BB68D8786A4913465B0013449B000B4402461A707A78BB689888644913465B001344FA
:403280009B000B44083302461A80BB689B785BB2002B1ADA7A783B78012B01D1072000E00D205A4913465B0013449B000B44053302461A707A78554913465B0013449B00F6
:4032C0000B44013301221A7019E07A783B78012B01D1052000E009204C4913465B0013449B000B44053302461A707A78474913465B0013449B000B44013300221A70444A5B
:403300007B781B011344023301221A70404879787A783E4C13465B0013449B00234408331B889BB21B0A9BB2DAB20B0103441A70374879787A78354C13465B0013449B00B4
:40334000234408331B889BB2DAB20B01034401331A70304879787A782C4C13465B0013449B00234406331B889BB2DAB20B01034406331A70274879787A78244C13465B00FD
:4033800013449B00234406331B889BB21B0A9BB2DAB20B01034407331A701E4879787A781A4C13465B0013449B00234406331B889BB2DAB20B01034404331A7015487978A3
:4033C0007A78124C13465B0013449B00234406331B889BB21B0A9BB2DAB20B01034405331A70BB680833BB60FB7B0133FB73FA7BFB789A42FFF403AF00BF1437BD4690BDE0
:40340000DF81FF1FD481FF1F5082FF1FE481FF1FFC5F00407060004080B485B000AF0346FB710F4B1B78DBB20E4ADB0013445B68FB60FB681033FB60FB681B78FA799A4248
:4034400002D30023FB6005E0FB79DB00FA6813445B68FB60FB6818461437BD4680BC7047BD81FF1F5C63000080B400AF054B1B78DBB2054ADB0013445B681846BD4680BC9D
:40348000704700BFBD81FF1F5C63000080B584B000AF104B1B78DBB2013BDBB21846FFF7BBFFB860BB68002B0DD0BB685B681B79FB71FB790233DB00BA681344BB60BB68AD
:4034C0005B68FB6001E00023FB60FB6818461037BD4680BDDF81FF1F80B582B000AF0023FB71344B1B79DBB203F07F03BB71BB79002B5AD0BB79082B57D8BA79B9792E48A9
:403500000B465B000B449B00034402331B78DBB243F00103D8B2284913465B0013449B000B44023302461A70BA79234913465B0013449B000B44033300221A70BA79B97950
:403540001D480B465B000B449B00034401331B78DBB243F00203D8B2174913465B0013449B000B44013302461A70BA79124913465B0013449B000B4404331B78DBB25BB2B1
:40358000002B07DA0D4ABB791B01134402338D221A7006E0094ABB791B011344023389221A70FEF7DDFF0346FB71FB7918460837BD4680BD00600040E481FF1FFC5F0040B4
:4035C00080B582B000AF0023FB714C4B1B79DBB203F07F03BB71BB79002B00F08A80BB79082B00F28680BA79B97945480B465B000B449B00034402331B78DBB223F00103DA
:40360000D8B23F4913465B0013449B000B44023302461A70BA793A4913465B0013449B000B44033300221A70364ABB791B0113447F221A70BA79B97931480B465B000B44C4
:403640009B00034401331B78DBB223F00203D8B22B4913465B0013449B000B44013302461A70BA79264913465B0013449B000B4404331B78DBB25BB2002B1BDABA7920494C
:4036800013465B0013449B000B4401331B78DBB2012B07D11B4ABB791B01134402330C221A7022E0174ABB791B01134402330D221A701AE0BA79124913465B0013449B009E
:4036C0000B4401331B78DBB2012B07D10D4ABB791B011344023308221A7006E0094ABB791B011344023309221A70FEF739FF0346FB71FB7918460837BD4680BD006000409F
:40370000E481FF1FFC5F004080B584B000AF0023FB73154B1B79BB73144B1B78DBB2013BDBB21846FFF778FEB860BB685B681B79FB71BA7BFB799A4202D9BB7B022B0ED8E7
:40374000BB7BBA7B0A498A5CD1B20A4AD154BB7B054A9278D1B2064AD1540123FB73FB7B18461037BD4680BD00600040DF81FF1F5082FF1FC481FF1F80B483B000AF00238B
:40378000FB71094B1B78DBB25BB2002B06DA064B5B78DBB2012B00D000E000BFFB7918460C37BD4680BC70470060004080B400AF054B1B78DBB203F040039B09DBB2184602
:4037C000BD4680BC704700BF8F450040000000000230800803D000BF01380046FCD17047EFF3108072B6704780F31088704700BF80B582B000AF1A4B1B78DBB203F003034B
:40380000012B02D0022B04D012E0154B1B79BB7111E0134B1B79DBB203F07F02114913465B0013449B000B440A331B78BB7102E00023BB7100BF0C4B1A68BB7913441B7861
:40384000022B04D1FEF734FA0346FB7102E00023FB7100BFFB7918460837BD4680BD00BF00600040E481FF1FD881FF1F2DE9F0418AB004460D4600F013FA374B064693F91F
:4038800000800F46B8F1FF3F0DD022462B462046294601F08DFF30B9002200232046294601F07CFF20B1304639460AB0BDE8F0812A4B0890CDE90245CDE904450193B8F1F9
:4038C000000F19D1264F4FF060462046294600220023CDE9066701F039FF002834D002230093684601F000FAA8B1089BC3B9DDE906010AB0BDE8F0811A4F00262046294619
:4039000000220023CDE9066701F020FF68B1022398450093E5D101F0D7FF22230360E4E701F0D2FF089B0360E1E70123B8F1020F00930BD101F0C8FF212303600A4801F0F2
:40394000D5F9CDE90601D0E701230093684601F0CBF90028F2D1EDE7FE80FF1F64630000FFFFEFC70000F0FF686300002DE9F04F8DB006460F4614461D4600F085FBDFF824
:403980001093CDE9000199F90080B8F1FF3F46D022462B462046294601F00AFF834600283DD132463B463046394601F001FF8246002874D1304639460022002301F0C6FEF4
:4039C000002833D0002200232046294601F0BEFE8346B8B1A94A012300200021CDF828A0CDE90467CDE90645CDE9080103920293B8F1000F6CD0A24B0022104619460DB03E
:403A0000BDE8F08F2046294601F068F938B1002200232046294601F0A3FE00286AD1DDE90023104619460DB0BDE8F08FDDE9000101F054F9804600287DD0DDE900014FF07E
:403A4000000A4FF0000B52465B4601F07FFE0028E5D03046394601F041F90028DFD02046294601F03BF90028D9D099F90030834804210022022BCDE90467CDE90645CDE9D3
:403A800008AB039002910A9204D002A801F02CF9002847D101F018FF2223036042E0002200232046294601F051FE0028B7D0744B724800220121B8F1020FCDF828B0CDE918
:403AC0000467CDE90645CDE9082303900291A8D002A801F009F900287ED00A9B43B301F0F3FEDDE908230A990160104619460DB0BDE8F08F614999F900300122CDF828B094
:403B0000CDE90467CDE9064503910292002B68D05C490020022BCDE9080166D101F0D4FE212303600A9B1BB101F0CEFE0A9B0360DDE9082375E73046394601F0CFF800282E
:403B40003FF47BAF2046294601F0C8F800283FF474AFDDE900231046194601F029FE00286FD1464B99F90080039303230A90CDE90467CDE906450293B8F1000F3BD1DFF87B
:403B800014B14FF0604A0022002330463946CDE908AB01F0E5FD00283FF477AF00223A4B2046294601F06AFB04460D4601F0A4F802460B462046294601F0C8FD00283DD10A
:403BC000324B4FF06042CDE9082399F90080B8F1020F7FF45AAF5DE701F076FE212303607BE700230024CDE9083402A801F07CF8002897D192E7DFF8A0B04FF0000A0022A9
:403C0000002330463946CDE908AB01F0A9FD0028DDD000221C4B2046294601F02FFB04460D4601F069F802460B462046294601F08DFD18B9134B0022CDE9082399F9008002
:403C4000C5E70E4A99F900900123CDF82880CDE90467CDE9064503920293B9F1000FC0D0002200231046194601F032FCB9F1020FCDE908013FF452AFB7E700BF6C63000005
:403C80000000F03F0000F0FF0000E03FFFFFEFC7FE80FF1FFFFFEF470000F07F000000002DE9F04FB1F5801F85B006460F460B465ADA024621F00044224300F0F78000294D
:403CC000C0F279810022D64B01F0D8FA0B460F46D44906468B426FF0350249DCC3F3130505F5152404F6647404F4801E8EF07F5181F440111B15A3F2FF3341EA05079C181C
:403D000030460022C84B394604EB1E5401F002F9AB1CC3F31303022B82468B464FF000022FDC002301F012FD002800F0C880002C00F04A81204601F03BFAA5A3D3E900234A
:403D400006460F4601F09AFAA3A3D3E9002304460D463046394601F091FA02460B462046294601F0D9F809E0AE4900228B42B5DD32463B463046394601F0CEF805B0BDE85A
:403D8000F08F4FF0804301F0C7F802460B465046594601F09DFB064620460F4601F008FA3246CDE900013B4630463946CDE9026701F064FA02460B468046894601F05EFAF7
:403DC00087A3D3E9002306460F4601F057FA86A3D3E9002301F0A0F832463B4601F04EFA83A3D3E9002301F097F832463B4601F045FA81A3D3E9002301F08EF842464B46D3
:403E000001F03CFA7EA3D3E90023804689463046394601F033FA7CA3D3E9002301F07CF832463B4601F02AFA79A3D3E9002301F073F832463B4601F021FA0B4602464946BE
:403E4000404601F069F8A5F5C223C5F5D725A3F27A4351351D43002D8046894656DD0022724B5046594601F009FA52465B4601F005FA06460F46002C68D132463B46404652
:403E8000494601F049F8DDE9022301F0F7F902460B463046394601F03DF802460B465046594601F037F805B0BDE8F08F0022002300205F4901F00CFB05B0BDE8F08F56A323
:403EC000D3E900235046594601F0D8F902460B460020564901F01EF8524606460F465B465046594601F0CAF902460B463046394601F0C4F906460F46002C40F09B8002462E
:403F00000B465046594601F005F837E7002C00F0A5802FA3D3E90023DDE9000101F0AEF942464B4604460D465046594600F0F2FFDDE9022301F0A2F927A3D3E90023064666
:403F40000F46DDE9000101F099F921E020A3D3E90023DDE9000101F091F932463B4604460D464046494600F0D7FFDDE9022301F085F919A3D3E9002380468946DDE90001FB
:403F800001F07CF902460B464046494600F0C4FF02460B463046394600F0BCFF52465B4600F0B8FF02460B462046294600F0B2FF05B0BDE8F08F02460B4600F0ABFF0022E4
:403FC000002301F085FAD9E600200021D6E600BF0000E0FE422EE63F763C7935EF39EA3D44523EDF12F1C23FDE03CB966446C73F599322942449D23F935555555555E53F68
:404000009FC678D0099AC33FAF788E1DC571CC3F04FA97999999D93F555555555555D53F00005043FFFFEF7F0000F03F0000E03F000050C3204601F0BBF80FA3D3E9002396
:404040008046894601F01AF90DA3D3E9002304460D464046494601F011F999E702460B465046594600F056FFDDE9022301F006F913E700BFAFF300800000E0FE422EE63FAF
:40408000763C7935EF39EA3D2DE9F04F23F0004858EA020993B03CD0714C21F00046A64283460D460CDD06F1404606F5801656EA0B0038D183466B49584613B0BDE8F08FA0
:4040C0009A4696462BD0A045EDDC654CA04578D0002D0F468146CDE9002376DB0024BEF1000F27D15E4B984500F08B805D4B984552D0BAF1804F00F0C9835B4B9A4519D1E3
:40410000002D17DB4846394613B0BDE8F04F00F01DBDCB465846534913B0BDE8F08F0028C1D1B045D1DD514813B0BDE8F04F00F0DDBD00244846394600F0CCFDBBF1000FE4
:404140001CD0ED0F013D54EA050370D0484B984540F3948003F10473984540F30D84454B9E4270DDBAF1000F70DD3BA3D3E900231046194601F082F883469DE726B1394B87
:4041800025F040429A42DCD1BAF1000FC0F2B783002D08DB83468FE7BAF1000FC0F25E84CB46394688E706F1404606F5801656EA040300F08384012CECD101F1004183466B
:4041C0007AE7BEF1000F83D06DE72B4B98452CDCA3F15473984581DD4FEA2853A3F2FF33142B40F35384C3F134032EFA03F202FA03F39E457FF472AF02F00102C2F1020425
:404200006DE706F1404303F5801353EA0B0300F03A83184B9E4240F36783BAF1000F15DBDDE900349B46214646E7022457E74A4648463B46394600F06DFE02460B4601F04D
:4042400047F9834638E7BAF1000F8EDB4FF0000B594631E7AFF300809C7500883CE4377E0000F07F0000F03F0000E03F686300000000E041FFFFEF3FFFFF3F43B6F5801FC3
:404280004FF0000205DAD04B00F0F8FF0E466FF03402DFF844E33315C6F31306A3F2FF3346F07F57764503EB020A47F4401740F3C983C64B00229E4240F304840023CDE99B
:4042C0000823CDE90C23C24B0022CDE906230AF1010AA7F5801700263946DDE90623CDE90A0100F017FEDDE9062380468946DDE90A0100F011FE02460B460020B44901F012
:40430000E7F80A4601461346CDE90E1202464946404600F0B3FF8C4683467B1043F0005303F5002399190020CDE904BC06460F464FF0000B6146584632463B46CDE910BC1F
:40434000CDE9020100F09AFF02460B464046494600F0E0FDDDE90623804689463046394600F0D8FD02460B46DDE90A0100F0D2FDDDE9022300F082FF02460B46404649460F
:4043800000F0C8FDDDE90E2300F078FFDDE90478CDE906013A4643463846414600F06EFF77A3D3E9002306460F4600F067FF76A3D3E9002300F0B0FD32463B4600F05EFFB5
:4043C00073A3D3E9002300F0A7FD32463B4600F055FF71A3D3E9002300F09EFD32463B4600F04CFF6EA3D3E9002300F095FD32463B4600F043FF6CA3D3E9002300F08CFD41
:404400003246804689463B463046394600F036FF02460B464046494600F030FFDDE9022306460F46DDE9040100F076FDDDE9062300F024FF32463B4600F06EFDDDE90267C8
:404440008046894632463B463046394600F016FF0022604BCDE90A0100F05EFD42464B4600F05AFDDDE910BC0F46DDE902015A463B46CDE90EBC5E4600F000FF0022CDE9BF
:404480000201544B3046394600F044FDDDE90A2300F040FD02460B464046494600F03AFDDDE9042300F0EAFE324680468946DDE906013B4600F0E2FE02460B4640464946A1
:4044C00000F02AFD8046894602460B46DDE9020100F022FDDDE90EBC35A3D3E900235846CDE906BC5E460F4600F0C8FEDDE90223CDE904013046394600F00CFD02460B4666
:404500004046494600F006FD2BA3D3E9002300F0B5FE2BA3D3E90023804689463046394600F0ACFE02460B464046494600F0F4FCDDE90C2300F0F0FC80465046894600F0D8
:4045400037FE06460F46DDE9040142464B4600F0E3FCDDE9082300F0DFFC32463B4600F0DBFCDDE906BC324658463B46DA468B4600F0D0FCDDE9082330E000BFAFF3008088
:40458000EF4E454A287ECA3F65DBC9934A86CD3F01411DA96074D13F4D268F515555D53FFFAB6FDBB66DDB3F033333333333E33F000000E009C7EE3FFD033ADC09C7EE3FC6
:4045C000F5015B14E02F3EBE0000404379B60B000000F03F000008408E98030000F09AFCDDE9042300F096FC02460B464046494600F090FC80468946DDE90012013C54EAE7
:40460000050314BFD64CD74C0023CDE904340B461446CDE9023400230293DDE9024508462B461146224600F075FC52465B4600F025FEDDE9002306460F464046494600F033
:404640001DFE02460B463046394600F065FC06460F4622462B4650465946CDE9006700F00DFE0B460246804689463046394600F053FCBD4B064699420D460C4640F30E8181
:4046800001F13F4303F5E003034340F0F081A0A3D3E90023DDE9000100F03EFC424682468B464B463046294600F034FC02460B465046594601F072F8002840F0D8812F46AB
:4046C0003B154FF48012A3F2FE3342FA03F32344C3F30A52A54EA2F2FF321641C3F3130B0020C2F1140523EA06014BF4801B02460B46002C4BFA05FB40464946B8BFCBF115
:40470000000B00F007FC02460B4680468946DDE9000100F001FC4FEA0B5A00247EA3D3E9002320460D4600F0A9FD424606460F464B462046294600F0EDFB02460B46DDE9C2
:40474000000100F0E7FB76A3D3E9002300F096FD75A3D3E90023804689462046294600F08DFD02460B464046494600F0D5FB8046894602460B463046394600F0CDFB32464F
:404780003B4604460D4600F0C5FB02460B464046494600F0BFFB2246804689462B462046294600F06BFD62A3D3E9002306460F4600F064FD60A3D3E9002300F0ABFB324672
:4047C0003B4600F05BFD5EA3D3E9002300F0A4FB32463B4600F052FD5BA3D3E9002300F099FB32463B4600F049FD59A3D3E9002300F092FB32463B4600F040FD02460B46A2
:404800002046294600F086FB06460F4602460B462046294600F032FD0022CDE900014FF080433046394600F075FB02460B46DDE9000100F04DFE424606460F464B46204619
:40484000294600F01BFD42464B4600F065FB02460B463046394600F05DFB22462B4600F059FB02460B4600203D4900F053FB8A44BAF5801FC0F237815146DDE9042300F0EE
:40488000FDFC834618E4F346354915E44A4648463B46394600F0F2FC83460DE4344B21F000479F4240F30181324B0B4403430CD142464B4600F02EFB02460B46DDE90001E6
:4048C00000F058FF00283FF4FBAE23A3D3E90023DDE9040100F0D2FC1FA3D3E9002300F0CDFC8346FFF7E8BBBAF1000FBFF6AEACDDE900349B4604F10041FFF7DDBB0246D3
:404900000B460020164900F0E3FD41E4AFF30080FE822B654715973C00000000432EE63FEF39FAFE422EE63F396CA80C615C20BED0A4BE726937663EF16BD2C541BDBB3E40
:404940002CDE25AF6A56113F93BDBE166CC1663F3E5555555555C53F59F3F8C21F6EA5010000F03F0000F0BFFFFF8F40FFFF0F00FFCB904000346F3F6F4B9E427FF763ACDC
:404980006E4B9E423FF7EEAB00226C4B00F0C2FA5BA3D3E9002306460F4600F06FFC5AA3D3E90023804689463046394600F066FC002282468B46624B3046394600F05EFCD2
:4049C00002460B4652A1D1E9000100F0A3FA32463B4600F053FC02460B460020594900F099FA3246CDE902013B463046394600F045FC02460B46DDE9020100F03FFC46A37F
:404A0000D3E9002300F03AFC02460B465046594600F080FA02460B4606460F464046494600F07AFA42464B46002082468B4600F071FA02460B463046394600F06BFA8046B0
:404A40008946D9E500220023CDE90823CDE90C233A4B00220026CDE906233DE44A463B460020364900F034FD8346FFF725BB2CA3D3E90023DDE9040100F000FC28A3D3E975
:404A8000002300F0FBFB8346FFF716BBBEF1000F7FF44FABC3F1140348FA03F202FA03F3984524D07446FFF721BB264B9F423FF707AEDDE902349A469B462EE602460B463A
:404AC000FFF7B9BB204B4FF48026CDE9062316A3D3E90023CDE9082315A3D3E90023CDE90C23FFF7F9BB5A4600F096F9C5E602F00102C2F10204FFF7F9BA00BFAFF3008078
:404B0000000000604715F73F44DF5DF80BAE543E555555555555D53FFE822B654715F73F9C7500883CE4377E0000004003B8E23F06D0CF43EBFD4C3EFEFFEF3F0000F03FCE
:404B40000000D03F0000E03F0000F83F2DE9F0415F4E0C46B6460E407645054600F0988000290B46024674DD5FEA215E7FD0AEF2FF3EC3F313031EF0010F43F4801363D143
:404B800000273E4603EBD2710B444FEA6E0E520016204FF4001174189C424FEAD2754FEA420202DC1B1B66180F44013805EB43034FEA5101EFD1844620244FF0004109E0BC
:404BC00020D003EBD275013C4FEA51012B444FEA420220D09E4201EB0C05F1DA002D05EB010C09DBB0469542A3EB060300D9013B4646521B0844E4E7BCF1000FF2DB06F12D
:404C00000108F0E7954217D8002D05EB010C49DB98460023ECE7134310D140087B1003F17F5303F50013FA0703EB0E57394648BF40F00040BDE8F0813346C2E7411C35D0ED
:404C400000F001031844E8E75B0003EBD273520096E721F000460643ECD079BB8E46D30AAEF1150E5205002BF9D0DD0221D4002100E001465B00DC0201F10100F9D5C0F1A3
:404C8000200422FA04F42343C1EB0E0E82406EE702460B4600F0F2FA2A46234600F03CF9BDE8F081BCF1000FA9DAB1E701372046B4E720244FF0FF310020E2E702460B46A9
:404CC00000F028F902460B4600F002FCB2E700BF0000F07F21F00041704700BF41F0004101F58010C00F70470020704700200149704700BF0000F87FF0B5C1F30A5EAEF280
:404D0000FF36132E83B002460B460C464FEAD17507462EDC002E49DB3D49314103EA010010432BD049080B4053EA02070CD04FF48023132E24EA010143FA06F444EA010424
:404D40000CBF4FF000470027324B214603EBC505D5E90045384622462B4600F0DDF8CDE90001DDE9000122462B4600F0D3F803B0F0BD332E06DDB6F5806F45D010461946E6
:404D800003B0F0BDAEF2134E4FF0FF3121FA0EF10842F3D049080842D6D04FF0804320EA010143FA0EFE4EEA0107CDE721F0004101431946E4D0C3F3130343EA000CCCF105
:404DC000000343EA0C0C134B640C4FEA1C3C0CF4002C03EBC5036404D3E900674CEA040132463B4600F098F8CDE90001DDE9000132463B4600F08EF8024621F0004141EA39
:404E0000C57310461946BBE700F086F8B8E700BFFFFF0F0070630000F8B5C1F30A5604460D460B46174606BB21F00043034325D000222F4B00F022FA2E4A044697420D4645
:404E40000B462ADBC1F30A56363E40F2FE723E44964228DC002E12DD23F0FF4323F4E00343EA065520462946F8BD40F2FF729642EBD102460B4600F04FF8F8BDF8BD16F15E
:404E8000350F1DDA4CF250339F420CDC14A1D1E9000122462B4600F031F811A3D3E9002300F0ECF9F8BD22460FA1D1E900012B4600F024F80CA3D3E9002300F0DFF9F8BD53
:404EC00023F0FF4323F4E003363643EA0655204629460022084B00F0D1F9F8BDAFF3008059F3F8C21F6EA5019C7500883CE4377E00005043B03CFFFF0000903C03F000436E
:404F000021F0004242EA0301704700BF81F0004102E000BF83F0004330B54FEA41044FEA430594EA050F08BF90EA020F1FBF54EA000C55EA020C7FEA645C7FEA655C00F0EF
:404F4000E2804FEA5454D4EB5555B8BF6D420CDD2C4480EA020281EA030382EA000083EA010180EA020281EA0303362D88BF30BD11F0004F4FEA01314FF4801C4CEA1131C4
:404F800002D0404261EB410113F0004F4FEA03334CEA133302D0524263EB430394EA050F00F0A780A4F10104D5F1200E0DDB02FA0EFC22FA05F2801841F1000103FA0EF2D8
:404FC000801843FA05F359410EE0A5F120050EF1200E012A03FA0EFC28BF4CF0020C43FA05F3C01851EBE37101F0004507D54FF0000EDCF1000C7EEB00006EEB0101B1F5D2
:40500000801F1BD3B1F5001F0CD349085FEA30004FEA3C0C04F101044FEA445212F5800F80F09A80BCF1004F08BF5FEA500C50F1000041EB045141EA050130BD5FEA4C0C22
:40504000404141EB010111F4801FA4F10104E9D191F0000F04BF01460020B1FA81F308BF2033A3F10B03B3F120020CDA0C3208DD02F1140CC2F10C0201FA0CF021FA02F14C
:405080000CE002F11402D8BFC2F1200C01FA02F120FA0CFCDCBF41EA0C019040E41AA2BF01EB0451294330BD6FEA04041F3C1CDA0C340EDC04F11404C4F1200220FA04F00B
:4050C00001FA02F340EA030021FA04F345EA030130BDC4F10C04C4F1200220FA02F001FA04F340EA0300294630BD21FA04F0294630BD94F0000F83F4801306BF81F480116B
:405100000134013D4EE77FEA645C18BF7FEA655C29D094EA050F08BF90EA020F05D054EA000C04BF1946104630BD91EA030F1EBF0021002030BD5FEA545C05D1400049410B
:4051400028BF41F0004130BD14F580043CBF01F5801130BD01F0004545F0FE4141F470014FF0000030BD7FEA645C1ABF194610467FEA655C1CBF0B46024650EA013406BFE8
:4051800052EA033591EA030F41F4002130BD00BF90F0000F04BF0021704730B54FF4806404F132044FF000054FF0000150E700BF90F0000F04BF0021704730B54FF48064DB
:4051C00004F1320410F0004548BF40424FF000013EE700BF42004FEAE2014FEA31014FEA02701FBF12F07F4393F07F4F81F06051704792F0000F14BF93F07F4F704730B501
:405200004FF4607401F0004521F0004120E700BF50EA010208BF704730B54FF000050AE050EA010208BF704730B511F0004502D5404261EB41014FF4806404F132045FEAD3
:40524000915C3FF4DCAE4FF003025FEADC0C18BF03325FEADC0C18BF033202EBDC02C2F1200300FA03FC20FA02F001FA03FE40EA0E0021FA02F11444C1E600BF70B54FF0BC
:40528000FF0C4CF4E06C1CEA11541DBF1CEA135594EA0C0F95EA0C0F00F0DEF82C4481EA030621EA4C5123EA4C5350EA013518BF52EA033541F4801143F4801338D0A0FB83
:4052C00002CE4FF00005E1FB02E506F00042E0FB03E54FF00006E1FB03569CF0000F18BF4EF0010EA4F1FF04B6F5007F64F5407404D25FEA4E0E6D4146EB060642EAC6215B
:4053000041EA55514FEAC52040EA5E504FEACE2EB4F1FD0C88BFBCF5E06F1ED8BEF1004F08BF5FEA500E50F1000041EB045170BD06F0004646EA010140EA020081EA030122
:40534000B4EB5C04C2BFD4EB0C0541EA045170BD41F480114FF0000E013C00F3AB8014F1360FDEBF002001F0004170BDC4F10004203C35DA0C341BDC04F11404C4F120051A
:4053800000FA05F320FA04F001FA05F240EA020001F0004221F0004110EBD37021FA04F642EB06015EEA430E08BF20EAD37070BDC4F10C04C4F1200500FA04F320FA05F04A
:4053C00001FA04F240EA020001F0004110EBD37041F100015EEA430E08BF20EAD37070BDC4F1200500FA05F24EEA020E20FA04F301FA05F243EA020321FA04F001F000418A
:4054000021FA04F220EA020000EBD3705EEA430E08BF20EAD37070BD94F0000F0FD101F00046400041EB010111F4801F08BF013CF7D041EA060195F0000F18BF704703F079
:405440000046520043EB030313F4801F08BF013DF7D043EA0603704794EA0C0F0CEA135518BF95EA0C0F0CD050EA410618BF52EA4306D1D181EA030101F000414FF000005E
:4054800070BD50EA410606BF1046194652EA430619D094EA0C0F02D150EA013613D195EA0C0F05D152EA03361CBF104619460AD181EA030101F0004141F0FE4141F470018E
:4054C0004FF0000070BD41F0FE4141F4780170BD70B54FF0FF0C4CF4E06C1CEA11541DBF1CEA135594EA0C0F95EA0C0F00F0A7F8A4EB050481EA030E52EA03354FEA013190
:4055000000F088804FEA03334FF0805545EA131343EA12634FEA022245EA111545EA10654FEA00260EF000419D4208BF964244F1FD0404F5407402D25B084FEA3202B61A30
:4055400065EB03055B084FEA32024FF480104FF4002CB6EB020E75EB030E22BFB61A754640EA0C005B084FEA3202B6EB020E75EB030E22BFB61A754640EA5C005B084FEA7D
:405580003202B6EB020E75EB030E22BFB61A754640EA9C005B084FEA3202B6EB020E75EB030E22BFB61A754640EADC0055EA060E18D04FEA051545EA16754FEA06164FEA29
:4055C000C30343EA52734FEAC2025FEA1C1CC0D111F4801F0BD141EA00014FF000004FF0004CB6E711F4801F04BF01430020B4F1FD0C88BFBCF5E06F3FF6AFAEB5EB030CD0
:4056000004BFB6EB020C5FEA500C50F1000041EB045170BD0EF0004E4EEA113114EB5C04C2BFD4EB0C0541EA045170BD41F480114FF0000E013C90E645EA060E8DE60CEACF
:40564000135594EA0C0F08BF95EA0C0F3FF43BAF94EA0C0F0AD150EA01347FF434AF95EA0C0F7FF425AF104619462CE795EA0C0F06D152EA03353FF4FDAE1046194622E748
:4056800050EA410618BF52EA43067FF4C5AE50EA41047FF40DAF52EA43057FF4EBAE12E74FF0FF3C06E000BF4FF0010C02E000BF4FF0010C4DF804CD4FEA410C7FEA6C5CCB
:4056C0004FEA430C18BF7FEA6C5C1BD001B050EA410C0CBF52EA430C91EA030F02BF90EA020F0020704710F1000F91EA030F58BF994208BF90422CBFD8176FEAE37040F013
:40570000010070474FEA410C7FEA6C5C02D150EA013C07D14FEA430C7FEA6C5CD6D152EA033CD3D05DF8040B704700BF8446104662468C461946634600E000BF01B5FFF793
:40574000B7FF002848BF10F1000F01BD4DF808EDFFF7F4FF0CBF012000205DF808FB00BF4DF808EDFFF7EAFF34BF012000205DF808FB00BF4DF808EDFFF7E0FF94BF012049
:4057800000205DF808FB00BF4DF808EDFFF7CEFF94BF012000205DF808FB00BF4DF808EDFFF7C4FF34BF012000205DF808FB00BF4FEA410C7FEA6C5C02D150EA013C0AD1F0
:4057C0004FEA430C7FEA6C5C02D152EA033C02D14FF0000070474FF0010070474FEA4102B2F1E04324BFB3F5001CDCF1FE5C0DD901F0004C4FEAC0024CEA5070B2F1004FCC
:4058000040EB830008BF20F00100704711F0804F21D113F13872BCBF01F00040704741F480114FEA5252C2F11802C2F1200C10FA0CF320FA02F018BF40F001004FEAC123CF
:405840004FEAD32303FA0CFC40EA0C0023FA02F34FEA4303CCE77FEA625307D150EA01331EBF4FF0FE4040F44000704701F0004040F0FE4040F40000704700BF4FEA4002CD
:40588000B2F1FE4F0FD34FF09E03B3EB12620DD94FEA002343F0004310F0004F23FA02F018BF404270474FF00000704712F1610F01D1420205D110F0004008BF6FF0004003
:4058C00070474FF000007047014B1868704700BF6081FF1F0E4B70B51E460E4C0025E41AA410A54204D056F8253098470135F8E700F062FD084B094C1E46E41AA410002523
:40590000A54204D056F8253098470135F8E770BDC4630000C4630000C4630000CC63000010B5431E0A44914204D011F8014B03F8014FF8E710BD03460244934202D003F8AC
:40594000011BFAE7704700000EB400B54FF402719CB0ADF814106FF00041049107914FF6FF711DAB02900690084853F8042BADF81610006802A9019300F064F8029B002278
:405980001A701CB05DF804EB03B070476081FF1F2DE9F0478E6882469E420C46914698463ED88A8912F4906F3AD02568096902236F1A656905EB450595FBF3F57B1C43446F
:4059C0009D4238BF1D4653050FD5294600F040FB064698B13A462169FFF7A2FFA38923F4906343F08003A38113E02A4600F08EFB064670B92169504600F0DEFA0C23CAF828
:405A00000030A3894FF0FF3043F04003A381BDE8F08726613E44266046466561ED1BA560464528BF464649463246206800F0A8FAA36800209B1BA36023681E442660BDE8DD
:405A4000F08700002DE9F04F9DB003938B8980461C060D4616460DD50B695BB9402100F0F7FA2860286118B90C23C8F80030CDE040236B610023099320238DF82930DFF88C
:405A80009CB130238DF82A3037463C4614F8013B1BB9B7EB060910D003E0252BF9D02746F3E74B46324629464046FFF771FF013000F0A780099B4B4409933B78002B00F02F
:405AC000A08000234FF0FF3204930793059206938DF853301A930126052221784E4800F041FA671C049B38B14B4A3C46801A06FA00F018430490EFE7D90644BF20228DF81B
:405B000053201A0744BF2B228DF8532022782A2A03D0079A00210A200BE0039A111D12680391002A10DA524243F00200079204900BE027463B780134303B092B03D800FB59
:405B400002320121F5E701B107923B782E2B1ED17B782A2B0AD1039B02371A1D1B680392002BB8BF4FF0FF33059310E0002319460593781C0A2407463A780130303A092A20
:405B800003D804FB01210123F5E703B1059103223978224800F0E6F940B14023CBEB000003FA00F0049B013718430490397806221B487E1C8DF8281000F0D4F988B1194BE6
:405BC00033B9039B073323F007030833039314E003AB00932A46144B04A94046AFF3008007E003AB00932A460F4B04A9404600F093F8B0F1FF3F824603D0099B53440993A9
:405C000042E7AB895B0601D4099801E04FF0FF301DB0BDE8F08F00BF82630000886300008C63000000000000915900002DE9F04791461F460A698B6806469342B8BF1346A8
:405C4000C9F8003091F843200C46DDF8208012B10133C9F800302368990642BFD9F800300233C9F80030256815F0060510D104F1190A07E00123524639463046C0470130E0
:405C80001AD00135E368D9F800209B1A9D42F1DB94F843302268003318BF012392060FD5E118302081F843005A1C94F845102244023382F8431003E04FF0FF30BDE8F087C4
:405CC00004F1430239463046C0470130F4D02268D9F80050E36802F00602042A08BF5D1B2269A3680CBF25EAE57500259342C4BF9B1AED184FF000091A344D4509D00123F6
:405D0000224639463046C0470130D5D009F10109F3E70020BDE8F0872DE9F04317460A7E85B06E2A984606460C460C9B01F1430E00F0AE8011D8632A22D009D8002A00F02D
:405D4000BB80582A40F0CA8081F84520834955E0642A1ED0692A1CD0C0E0732A00F0B08009D86F2A2ED0702A40F0B8800A6842F020020A603EE0752A24D0782A3AD0ADE021
:405D80001A6801F14205111D1960136884F84230A8E021681A6811F0800F02D0111D196008E011F0400F02F10401196002D0B2F9003000E01368002B3CDA2D225B4284F822
:405DC000432037E021681A6811F0800F02D0111D196007E011F0400F02F10401196001D0138800E01368227E5C496F2A14BF0A2208221BE078225A4984F84520226818687C
:405E000012F0800F00F104051D6003D1550601D5038800E00368D00744BF42F0200222601BB9226822F0200222601022002084F8430001E049490A226568002DA56008DB29
:405E4000206820F0040020602BB9002D7DD175460CE0002B79D07546B3FBF2F002FB1033CB5C05F8013D03460028F5D1082A0BD12368DA0708D5236962689A42DEBF3023EF
:405E800005F8013C05F1FF35C5EB0E0323612EE008681A6810F0800F496903D0101D1860136808E010F0400F02F104001860136801D0198000E0196000232361754616E0C9
:405EC0001A68111D1960156800216268284600F049F808B1401B6060636804E004F1420584F8422001232361002384F84330CDF800803B4603AA21463046FFF797FE01300F
:405F000002D14FF0FF3026E023692A4639463046C0470130F5D023689B0710D5002504F1190907E001234A4639463046C0470130E7D00135E368039A9B1A9D42F2DBE06898
:405F4000039B9842B8BF184605E00B7804F1420584F842308AE705B0BDE8F08393630000A463000010B5C9B202449042034605D01C7801308C42F8D1184610BD002010BD1D
:405F8000884210B501EB020301D8421E0BE09842FBD28118D21AD34204D013F8014D01F8014DF8E710BD994204D011F8014B02F8014FF8E710BD000038B50546002944D06D
:405FC00051F8043C0C1F002BB8BFE41800F0D4F81E4A1368114613B96360146030E0A3420DD92268A018834201BF18685B681218226063600C6023E0A24203D813465A68B9
:40600000002AF9D118681918A1420BD12168014458188242196013D110685268014419605A600DE002D90C232B6009E021686018824201BF106852680918216062605C60B1
:406040002846BDE8384000F098B838BD9881FF1F70B5CD1C25F0030508350C2D38BF0C25002D064601DBA94202D90C23336046E000F082F8234B1C681A462146A1B10B6875
:406080005B1B0ED40B2B03D90B60CC18CD501EE08C420BBF63684B681360636018BF0C4615E00C464968E9E7174C23681BB9304600F052F820602946304600F04DF8431C64
:4060C00018D0C41C24F00304A0420DD12560304600F053F804F10B00231D20F00700C31A0ED05A42E25070BD211A304600F034F80130EBD10C233360304600F03EF8002082
:4061000070BD00BF9881FF1F9481FF1FF8B5074615460E4621B91146BDE8F840FFF798BF1AB9FFF749FF2846F8BD00F027F885420ED929463846FFF78BFF044650B13146E5
:406140002A46FFF7EDFB31463846FFF735FF01E03046F8BD2046F8BD38B5064C0023054608462360FAF7ACFA431C02D1236803B12B6038BD7C82FF1F7047704751F8040CA2
:406180000028BEBF091851F8043CC018043870470000000000000000256C640A0D000000035B0040005B004001020000045B0040244300402D510040045B00400200408018
:4061C000005100401000405100403000C0510040100000000140001000140140000800400140000A004C014000020050014020003031323334353637383941424344454681
:40620000000000001201000202000008B40432F201000102800100000902430002010180320904000001020201030524001001042402020524060001052401000107058176
:406240000308000A09040100020A000004070582024000000705030240000000040309042C0343007900700072006500730073002000530065006D00690063006F006E00B0
:4062800064007500630074006F007200100355005300420055004100520054003803430044004300200043006F006D006D0075006E00690063006100740069006F006E0099
:4062C000200049006E007400650072006600610063006500260343004400430020004400610074006100200049006E007400650072006600610063006500000002030000AA
:4063000000008103080002000100820240000A000100030240000A00020A0000010000001862000003000000006300000000000000000000000000000000000000000000C3
:406340001863000001000000046200000000000000000000010000001C63000001000000446300006C6F670000000000706F7700000000000000304300000000000030C315
:406380004300232D302B2000686C4C006566674546470030313233343536373839414243444546003031323334353637383961626364656600000000F8B500BFF8BC08BCC3
:4063C0009E4670474D000000AD070000F8B500BFF8BC08BC9E46704729000000F0630000C880FF1FA00000001801000000000000000000008082FF1F01FF0000006CDC027D
:4064000080BB0000300000000000C05D00C2010000000800C201000000080000A120000000000200000001000000000000000000000000000000000000000000000000007A
:406440000000000000000000806300000000000000000000000000000000000000000000000000000000000000000000000000000000000000000000000000000000000039
:4064800000000000000000000081FF1F000000000000000000000000000000000000000000000000000000000000000000000000000000000000000000000000000000003D
:4064C000000000000000000000000000000000000000000000000000000000000000000000000000000000000000000000000000000000000000000000000000000000009C
:40650000000000000000000000000000000000000000000000000000000000000000000000000000000000000000000000000000000000000000000000000000000000005B
:40654000000000000000000000000000000000000000000000000000000000000000000000000000000000000000000000000000000000000000000000000000000000001B
:4065800000000000000000000000000000000000000000000000000000000000000000000000000000000000000000000000000000000000000000000000000000000000DB
:020000040003F7
:0200000480007A
:40000000014500400152004001090140040A0140010B0140011501400217014002190140011B014003400140034101400342014003430140024401400145014003460140A8
:40004000074701400648014001490140034C0140024D0140015101407E027C40B502B802BE01D804DF011D02EC10EA02EE0AEA02EE0AEC1033813640CC709F01A640A7800A
:400080009F01A640A7809F01A640A7807C01DE01940145089401D00108080B040F40A508B401C20EEC082510AE40AF81C820EA40EE50B510A508AC08AF44B508EC08002A17
:4000C0004000000000000000C0000000000B0B0000000000000000000000700010001801000000000000000000000000000000000000000000000000000000000000000051
:4001000000000000000000000000000000000000000000000000000000000000000000000000000000000000000000000000000000000000000000000000000000000000BF
:40014000000000000000000000000000000000000000000000000000000000000000000000000000000000000000000000000000000000000000000000000000000000007F
:40018000000000000000000000000000000000000000000000000000000000000000000000000000000000000000000000000000000000000000000000000000000000003F
:4001C00000000000000000000000000000000000000000000000000000000000000000000000000000000000000000000000000000000000000000000000000000000000FF
:0200000490006A
:0400000000004004B8
:0200000490105A
:04000000BC90ACAF55
:0200000490303A
:020000000C3DB5
:0200000490402A
:4000000000000000000000000000000000000000000000000000000000000000000000000000000000000000000000000000000000000000000000000000000000000000C0
:400040000000000000000000000000000000000000000000000000000000000000000000000000000000000000000000000000000000000000000000000000000000000080
:400080000000000000000000000000000000000000000000000000000000000000000000000000000000000000000000000000000000000000000000000000000000000040
:4000C0000000000000000000000000000000000000000000000000000000000000000000000000000000000000000000000000000000000000000000000000000000000000
:0200000490501A
:0C00000000012E16106900012E3D1CA608
:00000001FF